:1000000000160020B9130000D5470000711300004E
:100010007113000071130000711300000000000054
:10002000000000000000000000000000CD0F0000F4
:100030007113000000000000750F00007113000034
:10004000A5100000A5100000A5100000A5100000DC
:10005000A5100000A5100000A5100000A5100000CC
:10006000A5100000A5100000A5100000A5100000BC
:10007000A5100000A5100000A5100000A5100000AC
:10008000A5100000A5100000A5100000A51000009C
:10009000A5100000A5100000A5100000A51000008C
:1000A000A5100000A5100000A5100000A51000007C
:1000B000A5100000A5100000A5100000A51000006C
:1000C000A5100000A5100000A5100000A51000005C
:1000D000A5100000A5100000A5100000A51000004C
:1000E000A5100000A5100000A5100000A51000003C
:1000F000A5100000A5100000A5100000A51000002C
:1001000053B94AB9002908BF00281CBF4FF0FF317E
:100110004FF0FF3000F00CB8ADF1080C6DE904CEE3
:1001200000F008F8DDF804E0DDE9022304B07047D0
:10013000704700BF2DE9F04786468C460846089E6A
:10014000154674461946002B40F0C2808542B2FA2B
:1001500082F245D94AB1C2F1200300FA02FC2EFA1C
:1001600003F3954043EA0C0C94404FEA154EA8B2B5
:10017000BCFBFEF8230C0EFB18CC08FB00F943EA8D
:100180000C43994528D9EB1808F1FF3704D299455B
:1001900002D9A8F102072B44A3EB0903A4B2B3FBD5
:1001A000FEFC0EFB1C330CFB00F044EA0344A042AF
:1001B00014D92C190CF1FF3304D2A04202D9ACF1AE
:1001C00002032C44241A43EA07401EB1D440002302
:1001D00034607360BDE8F0874746DDE76346F1E7CA
:1001E00092BB431B01214FEA154EAFB2B3FBFEFC9D
:1001F000200C0EFB1C330CFB07F840EA0343984528
:1002000062D9EB180CF1FF3004D2984502D9ACF159
:1002100002002B44A3EB0803A4B2B3FBFEFC0EFBCD
:100220001C330CFB07F744EA0344A7424ED92C19B0
:100230000CF1FF3304D2A74202D9ACF102032C44E3
:10024000E41B43EA0040C0E7C2F1200320FA03F1B7
:10025000954090402EFA03F303434FEA154EAFB298
:10026000B1FBFEFC0EFB1C10190C0CFB07F841EA5D
:100270000041884504FA02F422D969180CF1FF30D4
:1002800004D2884502D9ACF102002944A1EB08014F
:100290009BB2B1FBFEFC0EFB1C110CFB07F743EA03
:1002A00001439F420ED9EB180CF1FF3104D29F425B
:1002B00002D9ACF102012B44DB1B41EA004192E779
:1002C0006046E3E76146F7E76046A3E76346B7E7C2
:1002D000834206D916B9002108467BE7C6E900E04B
:1002E000F9E7B3FA83F78FB9834201D3724508D88F
:1002F000BEEB020460EB030301209C461EB9002103
:1003000068E73846FAE7C6E9004CF8E7C7F1200C81
:10031000BB4022FA0CF41C432EFA0CF120FA0CF329
:10032000B84001434FEA14490EFA07F5B3FBF9F858
:100330001FFA84FE09FB18300B0C08FB0EFA43EA87
:1003400000439A4502FA07F240D9E31808F1FF305A
:1003500004D29A4502D9A8F102002344A3EB0A0370
:1003600089B2B3FBF9F809FB183308FB0EFE41EA2A
:1003700003418E452CD9611808F1FF3304D28E4514
:1003800002D9A8F10203214443EA0040A0FB0298ED
:10039000A1EB0E014145CE46434602D306D14D4561
:1003A00004D2B9EB020E68EB04030138002EA6D08C
:1003B000B5EB0E0261EB030101FA0CFC22FA07F324
:1003C0004CEA0303F940C6E9003198E74046C5E727
:1003D0004346D9E708B50249024803F0E7FD08BDE6
:1003E000E85C0000FC5C000008B5024B1B68984705
:1003F00008BD00BF00000020014B1860704700BF1F
:100400000000002000B583B002460B460021009199
:10041000024800F01DF903B05DF804FBE903000099
:100420002DE9F04383B0044608461546238B13F0AC
:10043000080F05D103F0070600230093019355E050
:10044000012909D043F02003238385F31188BFF3EA
:100450006F8F03B0BDE8F08343F010032383F4E70C
:10046000204603F0E5FD43E0D4F814904A4669467F
:10047000204603F0F6FD4FF00008238B03F007073A
:10048000B74269D0A268002A66D0012243F008036F
:10049000238385F31188BFF36F8F002A64D1009BFB
:1004A0002BB14B463A466946204603F053FEB8F15D
:1004B000000F02D034492046C0474FF02003EFF32D
:1004C000118583F31288BFF36F8F238B23F008030A
:1004D0002383238B13F0100F4CD023F010032383BE
:1004E0000120268B06F007060028AED00228B7D0E0
:1004F0000028AAD0013804282AD801A353F820F0F4
:1005000069040000510500001505000029050000E0
:100510003D0500002369D3F800800621204603F042
:100520005DFD4FF00009A8E72369D3F8048004219A
:10053000204603F053FD4FF000099EE72369D3F8EE
:1005400008800521204603F049FD4FF0000994E79B
:100550004FF00008C14690E7009A0AB1002295E7E3
:10056000B8F1000F92D1B4E74A463946204603F06D
:100570003DFD94E713F0200F04D023F020032383E4
:100580000220AEE70020ACE7834100008446084625
:10059000012226E09CF8003043F004038CF8003080
:1005A000F2B101301CE09CF8003043F008038CF8F5
:1005B0000030F5E79CF8003043F010038CF8003071
:1005C000EEE79CF8003043F020038CF80030E7E7BA
:1005D0009CF8003043F040038CF80030E0E7002244
:1005E00042B30378203B102BF9D801A151F823F036
:1005F000B5050000DF050000DF050000C3050000B1
:10060000DF050000DF050000DF050000DF0500005A
:10061000DF050000DF050000DF050000A705000082
:10062000DF05000095050000DF050000DF05000084
:10063000D10500009CF8003003F04403442B00D0A7
:1006400070479CF800306FF386138CF80030F7E7A2
:100650002DE9F04F91B006460D46914603930024D4
:1006600099F80000002800F0B982252808D009F187
:1006700001092946B0470028C0F2B1820134EFE7F2
:10068000002304930593069307930893099349461F
:1006900006A803F092FF02909DF8193013F0010FA5
:1006A00000F09780039B1A1D03921F68002FC0F271
:1006B00088809DF8193013F0040F00F09C80039B94
:1006C0001A1D0392D3F800A0BAF1000FC0F28A807D
:1006D0000023079308939DF81A3003F007039DF851
:1006E0001910C1F3C301012B00F08E80022B00F022
:1006F000D380042B00F02481032B00F03B819DF874
:10070000188018F0030B40F03B819DF81B30253B0F
:10071000532B00F2CA81DFE813F04001C801C80181
:10072000C801C801C801C801C801C801C801C80181
:10073000C801C801C801C801C801C801C801C80171
:10074000C801C801C801C801C801C801C801C80161
:10075000C801C801C801C801C801C801C801C80151
:10076000C801C801C801C801C801C801C801C80141
:10077000C801C801C801C801C801C801C801C80131
:100780008101C801C801C801C801C801C801C80168
:10079000C801C801C8015E016701C801C801C801DC
:1007A000C8016701C801C801C801C801BD018101B4
:1007B000A101C801C8014D01C8018101C801C801DA
:1007C00081019DF8183043F004038DF818307F4202
:1007D0006FE79DF91830002B02DB4FF0FF3768E719
:1007E000079F66E79DF819306FF341038DF81930C4
:1007F0004FF0FF3A6CE713F0020F02D0DDF820A0B3
:1008000066E74FF0FF3A63E7CB1E042B04D8DFE81E
:1008100003F00B1D29353500039B1A1D03921B683D
:10082000DA170493059206E0039B1A1D03921B68D6
:10083000DA1704930592012928D002297FF45FAFCB
:10084000BDF91030DA170493059258E7039B07337C
:1008500023F0070303F108020392D3E90023CDE953
:100860000423E8E7039B073323F0070303F108029F
:100870000392D3E90023CDE90423DCE7039B1A1D8F
:1008800003921B68DA1704930592D4E79DF91030A0
:10089000DA170493059232E7CB1E042B04D8DFE865
:1008A00003F00B1F35414100039B1A1D03921B6887
:1008B0000493002305931EE09DF81B30632B07D0A3
:1008C000039B1A1D03921B6804930023059312E0F7
:1008D000039B1A1D03921B680493002305930AE0EF
:1008E000039B073323F0070303F108020392D3E9C4
:1008F0000023CDE9042301291CD002297FF4FFAE97
:10090000BDF81030049300230593F8E6039B0733EA
:1009100023F0070303F108020392D3E90023CDE992
:100920000423E8E7039B1A1D03921B68049300232A
:100930000593E0E79DF81030049300230593DEE66D
:1009400008290BD0039B073323F0070303F10802A8
:100950000392D3E90023CDE90423D0E6039B0733B8
:1009600023F0070303F108020392D3E90023CDE942
:100970000423C4E6039B1A1D03921B680493BEE67E
:10098000029F3B464A462946304603F0BCFE0028FB
:10099000C0F225810444B94662E629462520B047C5
:1009A0000028C0F21C810134D8460DF13E0A4FF0F8
:1009B00000097FE0DDF81090BAF1000F07DB514627
:1009C000484603F0CDFF09EB000AD84672E04846DE
:1009D00003F0BDFFF7E7049B8DF82830D8460DF1F2
:1009E000290A0DF1280965E018F0080F05D118F063
:1009F000100804D04FF0200801E04FF02B08049AB3
:100A0000059B002B02DB0492059308E0524263EB46
:100A10004303049205934FF02D0800E0D8460DF1F2
:100A20003E0300930AAB06AADDE9040103F0FCFDD6
:100A30008146BAF1000F6CDB0DF13E03A3EB090315
:100A40009DF818206FF386128DF818209A4563D907
:100A5000AAEB030307930DF13E0A2BE0049828B993
:100A6000D846DFF880A1AAF1050923E00DF13E0385
:100A700000930AAB06AA002103F0D6FD81469DF83B
:100A80001A3043F010038DF81A3078238DF81B309C
:100A9000D846CEE72246049906A803F015FED846AC
:100AA0000DF13E0A4FF0000904E0D8460DF13E0A70
:100AB0004FF00009B9F1000F00F08D80AAEB090397
:100AC000B8F1000F00D001339DF81A2012F0100F7A
:100AD00025D0023307990B4412F0400F01D0089A39
:100AE0001344002F31DDFF1A9DF8183013F0040F66
:100AF0002BD113F0400F17D0B8F1000F17D02946B3
:100B00004046B04700286ADB0134D8464FF0300B2E
:100B10000FE00DF13E0ACDE70DF13E0ACAE712F0F3
:100B2000080FD7D00133D5E74FF0200B01E04FF08D
:100B3000300B3B465F1E002B07DD29465846B04769
:100B400000284CDB01343B46F4E7B8F1000F05D038
:100B500029464046B047002841DB01349DF81A3051
:100B6000C3F30012C3F3C0031A4305D02946302053
:100B7000B047002833DB01349DF81A3013F0100F12
:100B800006D029469DF81B00B047002827DB01341A
:100B9000079B03F1FF38002B07DD29463020B047C3
:100BA00000281CDB01344346F3E753464A462946F6
:100BB000304603F0A8FD002811DB0444002F07DDB8
:100BC00029462020B047002809DB0134013FF5E722
:100BD000DDF8089044E5DDF8089041E5204611B0C5
:100BE000BDE8F08F295D000001F0A8BC70B5054696
:100BF0004FF02003EFF3118683F31288BFF36F8F5A
:100C00000E4B1C680DE0A2683AB10D4B1B7D03EB47
:100C100043030C4911F8230090472346246804B18C
:100C200023B12CB1002DEED06268EDE71C46F8E749
:100C300086F31188BFF36F8F70BD00BF7002002074
:100C4000D40700206402002008B5064B23B1417888
:100C5000007803F0F6FE08BD002383F31188BFF38C
:100C60006F8FF8E7434A000070B50E4B1C7D21469C
:100C70000D4803F063FD00B970BD650004EB44004E
:100C80000A4E06EB8000FFF7DFFF0020FFF7AEFF04
:100C90002B19990006EB8303002272505A609A6068
:100CA000EAE700BFD4070020780200206402002099
:100CB000F8B50546384B1C7D4FF02003EFF3118645
:100CC00083F31288BFF36F8F04EB4402334B13F8A6
:100CD0002230002B39D0324B03EB820C2F4F4FEADE
:100CE000820E07EB820393E807008CE807000023DD
:100CF00007F80E3086F31188BFF36F8F04EB4403BF
:100D0000274A12F82330002B44D0B5F1FF3F2BD1F6
:100D100002F0D8FC0120FFF769FF2146214803F0CB
:100D200029FD214B5BB11E4A04EB440302EB830314
:100D300004EB4404597812F8240003F07AFEFFF71C
:100D400093FF02F063FE0120F8BD0146204600F04B
:100D500031F80028CED004EB4401114B03EB8103A2
:100D600007C883E80700C5E704EB44020C4B03EB1C
:100D700082039868410CC0030C4BC0180C4A4FF01A
:100D8000000341F10001FFF7BBF90121281A04F02B
:100D9000E9FDBDE70020D7E7D40700205802002076
:100DA0006402002078020020334A00003F420F0016
:100DB00040420F002DE9F04182B00E4601A900F03B
:100DC00045F8441E24B207E0B6F1FF3F33D080441B
:100DD000B04530D9013C24B2002C2BDB019B04EB45
:100DE000440203EB8205697813F8220003F0D5FC76
:100DF0000028EFD16868410CC003114FC019114A97
:100E00004FF0000341F10001FFF77AF98046AB682B
:100E1000590CDB03D8190B4A4FF0000341F10001D4
:100E2000FFF76EF9084B1B68B3F1FF3FCCD083424C
:100E3000CAD8CFE70025284602B0BDE8F08100BF40
:100E40003F420F0040420F000400002008B9024B4F
:100E50000B600020704700BF305D00000149102288
:100E60000A60704710ED00E072B6404080F31188D0
:100E7000BFF36F8FBFF34F8F30BF62B6BFF36F8F7B
:100E8000704700BF72B6494081F31188BFF34F8F9E
:100E900020BF80F3118862B6704700BF002807DBCF
:100EA00000F01F02400901239340024A42F820301B
:100EB000704700BF00E100E0002808DB4901C9B22B
:100EC00000F1604000F5614080F80013704700F0C9
:100ED0000F004901C9B2014B1954704714ED00E0ED
:100EE0004209054B53F8222000F01F00012303FAAA
:100EF00000F01040704700BF00E100E030BFFFF796
:100F0000FDBF00BF08B50B4B0B4A22F07F029A6071
:100F1000BFF34F8FBFF36F8FD3F8882022F4700296
:100F2000C3F8882002F052F902F0C8FE00F02AFA55
:100F300002F0AAF900ED00E0000000000A4A936800
:100F4000C3F8A80009490968C3F8AC1008494B6800
:100F500043F080534B60002383F31188BFF36F8FFE
:100F60009368D3F8AC007047D40700201C5F0000E2
:100F700000ED00E013498A684FF030001044EFF3B1
:100F8000098C80E8F01F202080F31288BFF36F8F58
:100F90000D4F4FF00066CA698A603E60D2F8A80023
:100FA0000023C2F8A83080F3118804B5104600F081
:100FB00099FABDE8044002F1300090E8F01F8CF38C
:100FC00009887047D407002004ED00E01EF0040FEC
:100FD0000CBFEFF30880EFF30980816911F8021C60
:100FE0000229FFD001B503F0DEFB01BD10B4A2F170
:100FF00020040E4942F8081C21F0010142F8081CA7
:1010000042F8203C019B42F81C3C029B42F8183CF1
:10101000039B42F8143C4FF0807342F8043C046593
:101020000023C0F8A83010BC704700BFC93F0000C3
:10103000104B9B68BBB110F1160F0BD0D3F8982062
:10104000A2F1400C844510D8824210D98A4207D8B8
:1010500000207047D3F898208A4201D800207047BA
:10106000D3F8980070470020704700207047002098
:10107000704700BFD407002008B50D461446084B42
:10108000986000F02FFA204685F30988002163B6A6
:1010900081F31188BFF36F8F0022002302F094FFC9
:1010A000D407002001B572B60B4A906900281EBF14
:1010B0000021916104F002FB62B6EFF30580A0F11C
:1010C00010004FEAC0000549014409C99847BDE82E
:1010D0000140034908470000D4070020985A000047
:1010E000E5100000044B9968D869884203D0034991
:1010F0004FF080520A607047D407002004ED00E0F2
:1011000010B51446124B9A6A9A6A9B6A13F4007FD0
:101110000BD00F4B9A6B9B6A13F4004F05D021B193
:101120000B4A936A23F400439362094B9A6A9B6AC1
:1011300013F4807F01D1064B9B6A054A936A43F4FE
:101140007F439362012103F04BFB2070002010BD10
:1011500000ED00E0074B9A6A9A6A9A6A9A6A9A6A5C
:101160009A6A9A6A6FEA02426FEA12429A62002011
:10117000704700BF00ED00E081690D4B5A6942F4F1
:1011800080725A61BFF34F8FBFF36F8F31F8021C2B
:101190005A6922F480725A61BFF34F8FBFF36F8F89
:1011A0004DF60273994201D000207047012070472C
:1011B00000ED00E070B505461646254B9A6A9A6A1E
:1011C0009B6A13F0020F0CD0214B586B9B6A13F0F3
:1011D000800F2FD039B11E4A936A23F080039362A7
:1011E00001E06FF015001A4B9A6A9A6A9B6A13F035
:1011F000100F04D1164B9C6A14F0020404D0144B57
:101200005C6814F4006418D1114B9B6A13F0200F32
:1012100004D00F4A536A23F4005353620C4A936A72
:1012200043F0FF0393620121284603F0D9FA30709E
:10123000204670BD6FF01500D5E72946FFF7F8FE90
:1012400004460028E0D080F309880224DCE700BFD0
:1012500000ED00E038B5054600230B701A4BD86A44
:1012600010F002002DD10C46DB6A002B2ADB164B56
:10127000D86A10F0804025D02846FFF77DFF08B1DE
:1012800028681FE0104B9B6A13F0FF0F0DD10E4B27
:10129000986A10F47F400ED10B4B9B6AB3F5803FE8
:1012A00010D32846FFF756FF0CE0224601212846BE
:1012B000FFF780FF06E0224601212846FFF720FFC6
:1012C00000E0002038BD00BF00ED00E070B58AB03E
:1012D0000C46224B5968C1F30801002383F311889F
:1012E000BFF36F8F02F07F43B3F17F4F15D102F050
:1012F0000C03082B14D012F0080F0BD000260DF1B0
:101300002702204603F071FA05469DF8273053B1B5
:101310000AB070BD04460126F1E700263446EEE728
:1013200000263446EBE72022214601A803F022FBE9
:101330004EB1089BC3F308025AB96FEA53236FEA10
:101340004323089305E0089B23F4FF7323F0010374
:10135000089301A9284603F022FAD9E700ED00E03E
:10136000024A536943F010035361704700ED00E0F7
:10137000EFF30880EFF3098101B57246FFF7A6FF8E
:1013800001BD00BF002206E003F00F030949194424
:1013900020230B7601322F2A0ADC53B2002BF3DB19
:1013A00003F1604303F56143202183F80013F1E763
:1013B000704700BFFCEC00E00020134908700020DB
:1013C00080F31488BFF36F8FFFF70EFC00200F49E6
:1013D0000860BFF34F8F0E4880F3088800F030F8A4
:1013E000202080F311880B484FF40461401880F3EB
:1013F0000988EFF314800221084380F31488BFF3B7
:101400006F8FFFF77FFD00001608002094ED00E0CD
:101410000016002040080020084BD3F89000C0F3CD
:101420000720002306E0054AC2F898300021C2F8E0
:10143000A01001338342F6DB704700BF00ED00E0EF
:1014400010B572B6002484F31388FFF7E5FF234636
:1014500008E003F120010E4A4FF0FF3042F821006E
:101460000133DBB2072BF4D9002308E003F160015C
:10147000074A4FF0FF3042F821000133DBB2072B5F
:10148000F4D962B6BFF34F8FBFF36F8F10BD00BFAB
:1014900000E100E008B50A4B9B68834202D002F0ED
:1014A000D5FB08BDEFF30583002BF8D0054B5A6838
:1014B00042F080525A605A6A22F400425A62EEE7C1
:1014C000D407002000ED00E008B5034B034A0121DA
:1014D000034803F010FA08BD0000022000000020BD
:1014E000305D000008B5D0F89830403B04480360F8
:1014F00040234360034B8360012103F000FA08BDE1
:101500007C02002000000B15084AC2F898000B6806
:1015100023F01F03034343F01003C2F89C308B6891
:1015200043F00103C2F8A030704700BF00ED00E0B7
:1015300010B5034C0123227803F0B5F9207010BDDB
:101540001008002008B50023094A127803F0ABF90F
:1015500010F1160F0AD0034606E0064AC2F898308A
:101560000021C2F8A0100133072BF6DD08BD00BF33
:101570001008002000ED00E0044B0522C3F8942081
:10158000BFF34F8FBFF36F8F704700BF00ED00E0D8
:10159000BFF35F8F024B0022C3F89420704700BF57
:1015A00000ED00E038B50E4B1D68082D15D8FFF78B
:1015B000EFFF002409E00A4B596804EB4402930052
:1015C00019442046FFF7A0FF0134A542F3D8054B8C
:1015D0001D70FFF7D1FF002038BD4FF0FF30FBE753
:1015E000405D000010080020014B1860704700BFEC
:1015F00008000020BFF34F8F0549CA6802F4E0627B
:10160000044B1343CB60BFF34F8F00BFFDE700BF18
:1016100000ED00E00400FA054FF02003EFF3118223
:1016200083F31288BFF36F8F01230649C1F8403559
:101630004FF08041C1F8783582F31188BFF36F8F86
:101640000020704700E0014030B108B5034B800135
:1016500043F00103984708BD704700BFE05C0000FD
:1016600000487047DC020020034BC01A8010034B77
:1016700003FB00F0704700BF9C020020B76DDBB693
:1016800038B505460C46FFF7EFFF014640220348F8
:1016900003F075FA01462846A04738BD205A0000DD
:1016A00030B583B005460C46FFF7DEFF0146402308
:1016B00000932346054A064803F07BFA011E01DB2E
:1016C00003B030BD2846A047FAE700BFFB4B00003F
:1016D000205A000008B510B101280DD008BD002126
:1016E000084803F0D7F9836813F0070FF6D10021FB
:1016F000044803F032FAF1E70121024803F02DFA21
:10170000ECE700BF205A000010B582B04FF0200374
:10171000EFF3118483F31288BFF36F8F144A1368B9
:1017200043F00201116013F0010F09D1002384F38B
:101730001188BFF36F8FB3B903F067FA02B010BD21
:101740000DF1070201214FF0804003F080F99DF870
:101750000730012B01D00023E9E7FFF781FF03F0F9
:10176000E9F90123E3E70021024803F0F6F9E5E790
:10177000EC020020205A000010B54FF02003EFF3D8
:10178000118483F31288BFF36F8F084A136823F024
:101790000201116013F0010F04D084F31188BFF32C
:1017A0006F8F10BD03F03BFAF7E700BFEC0200209B
:1017B00070B582B00546012807D14FF08043D3F8B9
:1017C0001C3403F00303012B4CD003F062FF0446EA
:1017D00018B9284B1B78002B39D14FF02003EFF3B9
:1017E000118683F31288BFF36F8F012424B94FF061
:1017F00080430222C3F8082301AA00214FF0804051
:1018000003F025F920B1019B012B26D0012D24D016
:10181000FCB13046FFF736FB4FF08043D3F8183564
:10182000002BE9D14FF08043D3F80431002BE3D0F3
:101830004FF080430022C3F80421D3F80421012291
:10184000C3F818250C49C1F880219A60D4E7002616
:10185000CCE7012003F0EDF9DEE72CB186F3118827
:10186000BFF36F8F02B070BD4FF080430222C3F808
:101870000423F7E71608002000E100E000B585B07A
:10188000CDF800D0CDF804D00023029301230393B8
:101890006B46074A03F0A9F9002805DB4FF48042A4
:1018A0000023684601F054FE05B05DF804FB00BF5C
:1018B0005F4C000070B5064600220121104602F080
:1018C0007DFF114800F012FF104B984219D103F030
:1018D000BCFD0024012C12D82146304603F0DAF872
:1018E00005462146304603F0E0F8094902F057FC6E
:1018F000002805DB0123AB601C44E4B2EAE70020CA
:1019000070BD6FF00400FBE7D51600000000AD0BC2
:10191000745D000010B50446104B0121BFF35B8FCE
:1019200053E8002F43E800100028F9D1BFF35B8F84
:101930001AB1631E012B0DD910BD094803F0B5F88B
:10194000084900234B608B60CB6001238B6002F061
:1019500043FCEEE72046FFF72BFFEDE7980200205F
:10196000205A00008802002010B504460A2806D03C
:10197000E1B2064883685B689847204610BD03487B
:1019800083685B680D219847F2E700BF805A00002A
:1019900010B5044C2046FFF727FE2046FEF72CFD2D
:1019A00010BD00BF6919000008B5054803F02CFE02
:1019B00018B1FFF7EDFF002008BD6FF01200FBE744
:1019C000805A000028B1012801D103487047002047
:1019D00070470248704700BF385A0000505A000054
:1019E000F0B585B00E46194643681B7B06F01F050F
:1019F00045EA4315B2F5001F22D0074614460023DE
:101A000001930293104603F00CFA8DF804007B68F2
:101A10009968F14011F0010F02D1B4F1A07F14D008
:101A2000002301AA1946284601F004F91B4B9842ED
:101A300031D10121284601F05DFA002005B0F0BD4A
:101A4000284601F089FA0020F8E705F01F036A092B
:101A5000012A14D04FF0A04203F5E07352F823306E
:101A600013F0010FDCD10DF10F01284601F0E6F96A
:101A70000B4B984205D00DF10F030293D0E7094AB2
:101A8000EAE70DF10F0001F02DFA044B9842F2D075
:101A90006FF00B00D2E76FF01500CFE70000AD0B41
:101AA0000400AD0B000300502DE9F04186B00E4656
:101AB0001446D0F8048098F80C3001F01F0545EA70
:101AC00043150DF11701284601F0B8F9074614F443
:101AD000403F3AD00021039104910B4603AA2846C7
:101AE00001F0A8F8334B984261D19F423DD014F4E5
:101AF000003F49D00DF10301204603F017F90746D6
:101B000050BB9DF803308DF8043014F4803F0CBFB7
:101B1000012300238DF80530204603F04AF98DF8A3
:101B2000060014F4002F25D0D8F804200123B34078
:101B3000C2F80835002201A9284601F00FF91D4B13
:101B4000984209D06FF0150706E0284601F026FA02
:101B5000184B9F4204D00027384606B0BDE8F081FC
:101B60009DF8170001F0B6F9F5E79DF8170001F0B0
:101B7000B1F9BCE714F4802FDCD0D8F8042001239D
:101B8000B340C2F80C35D5E7204603F012F98DF8C2
:101B9000080000231A4602A9284601F04BF8054B1D
:101BA000984201D10027D7E76FF01507D4E76FF00F
:101BB0001507D1E70000AD0B08B501F081F908B1B8
:101BC000002008BD01F052F9084B98420AD10021CB
:101BD000074801F02DF900220521062002F0EEFD54
:101BE0000020EEE76FF00400EBE700BF0000AD0B54
:101BF0005B4E000043681A68B1F5164F6FD03AD8B3
:101C0000B1F5165F6ED00AD9B1F5E14F75D024D980
:101C100047F6122399422BD14FF4000313E0B1F59C
:101C2000966F61D007D9B1F5166F63D0B1F5965FA5
:101C300010D13C4B07E0B1F5967F58D0B1F5167F37
:101C400005D14FF41C33C2F82435002070476FF0E3
:101C5000150070476FF015007047B1F5615F4ED009
:101C6000B1F5964F01D1304BEDE76FF0150070479D
:101C70006FF015007047B1F5613F42D009D9B1F559
:101C8000612F46D01FD9294B994248D14FF080533C
:101C9000D9E7B1F5963F37D005D9B1F5E13F0FD17E
:101CA0004FF0EB73CFE74DF6C02399422ED0B1F53C
:101CB000614F02D14FF46B03C5E76FF01500704719
:101CC0006FF0150070471A4B994225D0B1F5E12FFE
:101CD00002D14FF0E863B6E76FF0150070474FF49C
:101CE0001D03B0E7134BAEE74FF49E23ABE74FF471
:101CF000A033A8E74FF41D23A5E70F4BA3E70F4B35
:101D0000A1E74FF06C739EE70D4B9CE74FF4650322
:101D100099E74FF0706396E74FF0806393E76FF0B9
:101D20001500704700B0130000A04E0040420F00A5
:101D300090D003000050270000C0750000F03A006A
:101D400000903A01F8B505460E46076903F0A1FC7C
:101D500010B9124B1B7883B94FF02003EFF31184B5
:101D600083F31288BFF36F8F284603F039F940B927
:101D700084F31188BFF36F8FEEE7284603F095F9DF
:101D800004463B691E7001223969284603F042F976
:101D900084F31188BFF36F8FF8BD00BF16080020D1
:101DA00038B504460D4601F1180001F04BF90C4B13
:101DB000984211D12B7E04F590710C34094AA2335C
:101DC00042F8331002EBC3035C60297E01238B4091
:101DD000C2F80435002038BD6FF00400FBE700BFF7
:101DE0000000AD0B00F0014021F07F4100F5A8702C
:101DF000014B43F820107047001001404FF480332E
:101E00008340024AC2F84433704700BF00100140CB
:101E10004FF480338340024AC2F84833704700BF12
:101E200000100140014BD3F8040570470010014039
:101E30002DE9F04106468846FFF7EAFF304603F0F9
:101E4000ECF94546032701E03D19013729463046A4
:101E5000FFF7CAFF3046FFF7D1FFFFF7E3FF044665
:101E6000C11C284603F0C8F90B4B984211D93046E3
:101E700003F0C6F90028E7D0FFF7D4FF0446414637
:101E800003F0BAF9B0F5000F03D9304603F0C5F9F5
:101E9000DAE7BDE8F08100BFFDFF7F0010B5012348
:101EA00083406FEA030C0E4ABFF35B8F52E8001FBA
:101EB00001EA0C0E42E800E4002CF7D1BFF35B8F7F
:101EC0004FF4803282400748C0F80823BFF35F8F89
:101ED000BFF36F8F0B4214BF0120002010BD00BF65
:101EE0000C030020001001404FF480338340144A5B
:101EF000D2F80423134201D10020704710B50446E4
:101F000001238340DB430F49BFF35B8F51E8002F70
:101F100002EA030041E8000CBCF1000FF6D1BFF368
:101F20005B8F22FA04F313F0010F03D1204603F074
:101F300067F918B1204603F070F9012010BD00BF09
:101F4000001001400803002001B9704701238340BD
:101F5000114ABFF35B8F52E800CF4CEA030C42E812
:101F600000C10029F7D1BFF35B8F4FF4803383406A
:101F70000A4AC2F80433BFF35B8F094B1B68BFF3F7
:101F80005B8FC34013F0010FDFD0064B4FF40032DC
:101F9000C3F80021D9E700BF0C0300200010014066
:101FA0000803002000E100E038B514461046194649
:101FB00003F03FF902460D490B68E01A1B184C6804
:101FC00044F100040B604C60A2F50013B3F5400F20
:101FD00009D2074B1B68190A1B06D41841F10005EA
:101FE000044BC3E9004501F055FF38BDE000002077
:101FF00010030020E800002038B50D4B1C68250AAE
:102000002406BFF35F8FFFF70DFF0346001945F16C
:102010000001B3F5801F0AD2064BD3E9002390429A
:1020200071EB030303D210F1807041F1000138BD60
:1020300010030020E8000020F8B5064614461D46AF
:102040001046194603F0F5F80746FFF7D5FFA04202
:1020500071EB050315D2201A65EB0101174B98426D
:1020600071F1000127D2164B03EB0613D3E90223CB
:10207000AB4208BFA24212D039463046FFF7D8FE25
:102080000DE00123B3400F4ABFF35B8F52E8000F0E
:10209000184342E800010029F8D1BFF35B8F084BD9
:1020A000320103EB0616C6E9024506999950079BD3
:1020B00073600020F8BD6FF01500FBE701008000A1
:1020C000D00000200803002030B583B000231D4A53
:1020D000C2F80835002B24DD1A4C0225C4F804533D
:1020E000194B4FF40032C3F8802100220121112046
:1020F00002F064FB112002F05CFB0123A36023606B
:10210000124A136000240194114B0093114A0023DA
:10211000204603F09FF82846FFF7FCFB204603B05B
:1021200030BD0D4A02EB03124FF0FF304FF0FF318C
:10213000C2E902014FF480329A400249C1F80423F7
:102140000133C7E70010014000E100E00C0300206C
:10215000A91F0000FFFF7F00D00000202DE9F047FD
:1021600082B00446FFF7C0FE10B902B0BDE8F087A8
:10217000FFF742FF82460D4603F05EF80646154B18
:1021800003EB0413D3E90289C24575EB09050BD2B1
:102190000025304603F059F8002DE6D0009742465E
:1021A0004B462046A847E0E70A4A230102EB041108
:1021B000D5584F680020D0504FF0FF324FF0FF331A
:1021C000C1E902232046FFF723FE204603F025F84D
:1021D000DFE700BFD000002010B50E4BD3F804336A
:1021E00013F0020F0DD00B4BD3F804314BB1094B58
:1021F0000022C3F80421D3F80431074A13680133DD
:1022000013600024002C00DD10BD2046FFF7A6FF60
:102210000134F7E7001001401003002010B582B030
:10222000B0F1FF3F06D0012809DD154B984224DCB0
:10223000044605E0134B00221A70134C03E00124FE
:10224000104B01221A70FFF7D7FE104B1A685B681B
:10225000801AB0F5000F00D300240444B4F5000F39
:1022600000D3094C0020121901900949009143F153
:10227000000302F0EFFF02B010BD034CE0E700BF27
:10228000FEFF7F0015080020FFFF7F00E000002018
:10229000A91F000008B5FFF7AFFE024B1B68C01A6C
:1022A00008BD00BFE000002069B900F01F0140092F
:1022B000012806D04FF0A04201238B40C2F80C3514
:1022C0007047084AF8E700F01F014009012806D0CE
:1022D0004FF0A04201238B40C2F808357047014AF5
:1022E000F8E700BF000300502DE9F04F83B0074628
:1022F0008A46934600252CE04FF0FF3436E0CBF8B9
:102300000C450126019631467F2C20D0B1F1FF3FCC
:1023100040F0D88057F8092012F4005F02D001265F
:1023200000230193C2F3C11204F01F016409012CC0
:1023300000F0CC804FF0A040019B43EA460343EA03
:10234000820343EA082301F5E07240F822300135A8
:10235000EDB2554580F0BC804FEA850957F825302D
:10236000C3F3432803F07F047F2CC5D01B0C192B2B
:1023700000F2B08001A252F823F000BFFF2200005B
:10238000E5230000F3230000FF2300000D240000DC
:102390001B24000027240000D5240000D5240000C1
:1023A000D5240000D5240000352400004924000075
:1023B000D5240000D5240000D5240000D524000039
:1023C000D5240000D5240000D5240000D524000029
:1023D000D52400005D2400006F240000812400004B
:1023E00093240000CBF81445002601964FF0FF31EE
:1023F0008AE7CBF8084501260196314684E7CBF8F9
:102400001045002601964FF0FF317DE7CBF80845D7
:10241000002601230193314676E7CBF80C450126CF
:102420000196002170E7CBF81045002601964FF089
:10243000FF3169E7CBF80845B8F1000F32D000262C
:1024400001964FF0FF315FE7CBF80C45B8F1000F74
:1024500030D0002601964FF0FF3155E7CBF86045AC
:1024600057F80910C1F38031012601964CE7CBF8EB
:10247000644557F80910C1F380310126019643E7FE
:10248000CBF8684557F80910C1F380310126019651
:102490003AE7CBF86C4557F80910C1F380310126B3
:1024A000019631E74646CDF804804FF0FF314FF0FA
:1024B000060829E74646CDF804804FF0FF314FF07B
:1024C000060821E72046FFF7EFFE23E7044833E73D
:1024D000002001E06FF0850003B0BDE8F08F00BF81
:1024E00000030050BFF34F8F0549CA6802F4E06251
:1024F000044B1343CB60BFF34F8F00BFFDE700BF1A
:1025000000ED00E00400FA05024BD3F80034002B84
:10251000FAD0704700E0014008B5034BC3F804054A
:10252000FFF7F2FF08BD00BF00E00140014B024A87
:102530001A607047440000200090D00338B502F0C4
:10254000BFFE40B14FF080430022C3F80C21C3F816
:102550001021C3F8382502F0BDFE002846D04FF008
:102560008052D2F804143B4BC3F82015D2F808145B
:10257000C3F82415D2F80C14C3F82815D2F8101497
:10258000C3F82C15D2F81414C3F83015D2F8181467
:10259000C3F83415D2F81C14C3F84015D2F820142F
:1025A000C3F84415D2F82414C3F84815D2F82814F7
:1025B000C3F84C15D2F82C14C3F85015D2F83014C7
:1025C000C3F85415D2F83414C3F86015D2F838148F
:1025D000C3F86415D2F83C14C3F86815D2F8401457
:1025E000C3F86C15D2F84424C3F8702502F07CFEC1
:1025F00060B14FF08043D3F8003413F0010F05D0E1
:102600004FF080436FF00102C3F8002402F085FE12
:102610004FF01023D3F80032002B08DB4FF01023CB
:10262000D3F80432002B02DBFFF780FF38BD012016
:10263000FFF772FF4FF010241225C4F80052FFF785
:1026400063FFC4F80452FFF75FFF0020FFF764FF49
:10265000FFF748FF00C0004010B50468B4FA84F3E7
:10266000C3F11F035FFA83FC002B16DB012202FA81
:1026700003F324EA0303BFF35B8F50E8002FA24269
:1026800004D140E8003EBEF1000FF6D1BFF35B8FEE
:10269000E3D181F800C0024810BD0248FCE700BF4A
:1026A0000000AD0B0200AD0B0368CB4013F0010F2F
:1026B00015D100B5026801238B401343BFF35B8F34
:1026C00050E800CF944504D140E8003EBEF1000F31
:1026D000F6D1BFF35B8FEDD102485DF804FB0248F1
:1026E000704700BF0000AD0B0400AD0B054B1B791C
:1026F0002BB9044B186001221A7103487047034834
:10270000704700BF140300200000AD0B0C00AD0BA0
:1027100008B54FF08043D3F8003163B14FF08043E8
:102720000020C3F80001D3F800210122C3F80823D8
:10273000134B1B6898474FF08043D3F804319BB18B
:102740004FF080430022C3F80421D3F80421D3F8CA
:102750001824D3F8183412F0030F06D14FF0804339
:102760000122C3F818259A6008BD4FF08043022269
:10277000C3F80823024B1B6801209847F4E700BF09
:1027800014030020F0B51C46059F069E00F01F0CA8
:102790004009012835D04FF0A0450CF5E07355F8FD
:1027A000233081B3012082B34FF0020E40EA0E00C5
:1027B00074B34FF00C0E40EA0E0067B34FF4E06EB6
:1027C00040EA0E0056B34FF4403E40EA0E0023EAC2
:1027D000000031B30B7832B312785200134324B3A4
:1027E00022789200134317B33A781202134306B3C8
:1027F00032781204134303430CF5E07C45F82C3087
:10280000F0BD0D4DC9E70020CDE74FF0000ECDE73C
:102810004FF0000ECFE74FF0000ED1E74FF0000E63
:10282000D3E70023D7E70022D8E70022DAE7002227
:10283000DCE70022DEE700BF0003005000B583B0F4
:1028400084468E460D4B93E8030002AB03E9030078
:1028500063460BE002A901EB830151F8081CD1F893
:10286000200542F8040BC1F8200501330CEB0E00E3
:102870009842EFD803B05DF804FB00BFD05C0000C5
:102880000830034B33F8100000F00100704700BF20
:10289000480000200830034B33F81000C0F340100C
:1028A000704700BF480000200830044B33F8100088
:1028B00010F01C0018BF0120704700BF4800002026
:1028C0000830034B33F81000C0F34000704700BFDE
:1028D000480000200830024B33F81000400B7047CE
:1028E00048000020002204E04FF0FF3383420FD065
:1028F0000132292A0AD802F10803064931F81330B7
:1029000013F4807FF0D0C3F34323EFE70020704738
:102910000120704748000020002313B14FF0FF3022
:102920007047074A52F83320824201D00133F4E75E
:10293000034A02EBC30252688A42F7D11846704735
:102940004800002000F108020F4B33F81230C3F3A7
:102950008203042B12D0052B12D000F01F02400975
:10296000012809D04FF0A043D3F81035D34013F01D
:10297000010F07D003207047044BF5E70320704791
:1029800002207047022070474800002000030050DA
:102990000830064B33F8100010F4807F04D0C0F3E9
:1029A000432003EBC0007047002070474800002020
:1029B00070B504460D46FFF7EBFF20B1066842688C
:1029C00029462046B047044B9B6823B1024AD2688F
:1029D00029462046984770BD4800002070B506463D
:1029E0000C461546084602F0EEFD60B9022D28D0CF
:1029F0000221304602F0BFFD032C26D0022D22D04A
:102A0000032D27D070BD21463046FFF7D1FF06F0D9
:102A10001F037209012A12D04FF0A04203F5E073A0
:102A200052F82330C3F301439D42EBD100213046DD
:102A300002F0A1FD2946304602F09DFDE2E7074A7B
:102A4000ECE70321D5E7012CDAD121463046FFF728
:102A5000AFFFD7E7022CD5D1F7E700BF0003005046
:102A600000F108020E4B33F8123013F4807F16D0B9
:102A700010B5C3F34324104623F4F853084A22F850
:102A800010302046FFF72EFF00B110BD0448002390
:102A900040F8343021466830FFF706FEF5E770470E
:102AA0004800002010B50446FFF7F4FE40B1204670
:102AB000FFF710FF00F5A270064B002243F820201C
:102AC0002046FFF7CDFF0834034B002223F81420E3
:102AD00010BD00BF006000404800002070B582B00B
:102AE00005460E461446FFF7BBFF26B32146304687
:102AF000FFF712FF031E13DB104941F8336001EBAF
:102B0000C302546005F1080031F810205B029BB24B
:102B1000134343F4807321F81030094802B070BDAC
:102B20000DF107010748FFF797FD054B9842F5D1D6
:102B30009DF80730E0E70248F0E700BF48000020BA
:102B40000000AD0BB000002070B582B06A460221D3
:102B50000020FFF773FE40E0224E05F5E07356F8C3
:102B60002320C2F30142FFF739FF0123AB40C6F82F
:102B7000203502AB03EB840353F8080C00B390FA42
:102B8000A0F0B0FA80F000EB441000F10802164B00
:102B900033F81210C1F38201C50800F007061DF8D2
:102BA00005200123B340DB435BB213400DF8053031
:102BB00000F01F054309012BCED04FF0A046CCE713
:102BC0000134012CD5D9094B0022C3F87C21D3F85C
:102BD0007C31684602F0FCFC08B10024F1E702B049
:102BE00070BD00BF0003005048000020006000409E
:102BF00038B5044618E094FAA4F3B3FA83F301223B
:102C00009A4024EA02040A4A03F5A27352F82350B8
:102C1000C5F3052552F82300C0F3014002F0D1FCB2
:102C200001462846FFF7C4FE002CE4D138BD00BFA2
:102C3000006000402DE9F04184B0044615461E4670
:102C400009B30F4602F0A7FC00283FD100238DF8FE
:102C50000E308DF80F30019300933B460DF10F02BB
:102C60000DF10E012046FFF78DFD384A04F10801F1
:102C700032F8113023F002039BB222F8113043F0F6
:102C8000010322F81130BDB12F78D5F80480204619
:102C9000FFF716FEE0B1B8F1000F51D12B4A04F155
:102CA000080132F8113023F01C039BB222F81130D6
:102CB00043EA870322F81130002E45D0726831684C
:102CC0002046FFF70BFF04B0BDE8F0812048FAE78B
:102CD0001E4A04F1080132F8113023F02003DB040E
:102CE000DB0C22F81130B8F1000FD7D0032F29D810
:102CF0006B681D7837B905F5A275164B002243F8AD
:102D00002520CBE7384602F05DFC0346114805F567
:102D1000A27150F8212022F0030240F8212022461F
:102D2000294602F0F0FB094A04F1080132F811309B
:102D30006D03ADB22B4343F0200322F81130ADE711
:102D40000348C0E70248BEE70348BCE7480000204C
:102D50000400AD0B006000400000AD0B70B584B006
:102D60000446154629B30E4602F024FC20B1204645
:102D7000FFF790FD002838D12046FFF795FD10B1F0
:102D80007378012B31D001238DF80F30002301938C
:102D90000096B31C721C0DF10F012046FFF7F2FCE8
:102DA0001F4A04F1080132F8113043F0030322F8FE
:102DB000113085B3204602F0FDFB70BB2E7806F57E
:102DC000A272184B002143F82210154A04F10801A1
:102DD00032F8113023F02003DB04DB0C22F8113031
:102DE0006B7823B9104804B070BD1048FBE7AA788F
:102DF0000092224631460B4802F09EFB084A0834F6
:102E000032F814307603B6B2334343F0200322F88D
:102E100014300548E7E70448E5E70448E3E700BF66
:102E200048000020006000400000AD0B0400AD0B26
:102E3000014B9860D96070474800002038B50446BF
:102E40000D46FFF727FD40B104F10800044B33F8AD
:102E500010305B0B2B70034838BD0348FCE700BF04
:102E6000480000200000AD0B0400AD0B0F4B93F8A1
:102E70006C300BB10E48704710B50E4C5422002137
:102E8000204601F0A6FD062001F093FC0A4B00222B
:102E9000C3F87C21D3F87C214FF00042C3F804230F
:102EA000012384F85C30A365044810BD480000206D
:102EB0000500AD0B58000020006000400000AD0B85
:102EC000034B93F86C00003818BF0120704700BF17
:102ED0004800002008B501460148FFF7E5FB08BDA2
:102EE000AC00002008B501460148FFF7B5FB08BD5E
:102EF000AC00002038B504460D46FFF7CBFC00B30C
:102F0000204602F057FBE0B12046FFF7E3FC8300C8
:102F100003F580739BB203F1804303F5C0430022A5
:102F20001A601B680B4A00F5A27152F8213043F079
:102F3000010342F821305DB101238340C2F804331C
:102F400006E02046FFF7FEFC0146204602F013FB98
:102F500038BD00BF0060004010B50446FFF79AFC82
:102F6000A0B1204602F026FB80B12046FFF7B2FC5C
:102F700001228240084BC3F8082300F5A27053F8E1
:102F8000202022F0030243F8202003E00021204605
:102F900002F0F1FA10BD00BF0060004010B5044619
:102FA000FFF76EFC08B90C4810BD2046FFF7D4FFB0
:102FB0002046FFF777FD04F01F036409012C08D0B9
:102FC0004FF0A04203F5E073022142F823100348BA
:102FD000EAE7034AF6E700BF0400AD0B0000AD0BC3
:102FE0000003005038B501204FF4807300210C46D7
:102FF00003E0400004339BB20131072914D803F1E8
:10300000804202F5C0421268002AF2D00C4AD2F87F
:1030100004231042EDD003F1804202F5C0420025A6
:10302000156012680443E4E7054BD3F87C311BB903
:103030002046FFF7DDFD38BDFFF786FDF8E700BF4E
:103040000060004008B501460148FFF705FB08BDD8
:10305000B800002010B5144C032323616361134AA8
:10306000A261134BE3614FF4806323620023A362E8
:103070006362E36222660F4A62661022A2662367D9
:10308000E36663670C49E01D01F03DFCBFF35F8F11
:103090000A49204601F037FCBFF35F8F2023A3715C
:1030A000BFF35F8F10BD00BF2C070020045F00003E
:1030B0002C0300201C030020105F0000145F0000A0
:1030C000034B00E01833034A9342FBD3704700BF21
:1030D000205A0000985A000070B50646114B53F86C
:1030E000204009E0404217E0EB681870EA68537826
:1030F00043F0010353700834731C0A4A52F823301A
:10310000A3420DD96568236828469847002DF2D060
:103110000028EBD00028E5DBFF28E5DDFF20E3E712
:1031200070BD00BF305F000010B586B0B023104CFA
:1031300003FB004400EB400C0E4B03EBCC030E4AA8
:103140000592012204920F22039200220292019220
:1031500000930A4B4FF4A072094901EBCC112046B1
:1031600000F006F9637B23F00403637306B010BD1F
:10317000F0000020D4070020205F0000CD340000C4
:103180008010002008B50A4B01221A700320FFF7B7
:10319000A3FF00F001FF0420FFF79EFF00F04CF9B1
:1031A000FDF718F9034A137B23F00103137308BDDD
:1031B00016080020A001002008B50146014A024877
:1031C000FDF75AFF85310000A001002008B5034833
:1031D000034A121A002102F041FA08BDD000002073
:1031E0001808002010B50446FFF79EFFB0230B49D6
:1031F00003FB04110A4A04EB440302EBC303D96046
:103200001C7504EB4411074B03EB811303F50463B6
:1032100004EB440402EBC402536010BDF000002034
:10322000D40700204008002070B586B000F040FCB4
:10323000104D114BDD61114B0593012304930024C4
:1032400003940294019400940D4B4FF480620D4955
:10325000284600F08DF806466B7B23F004036B7361
:10326000284602F076FA2046FFF7BCFF304606B04B
:1032700070BD00BFA0010020D4070020285F00001F
:10328000853100000012002000B5ADB00020FFF72E
:1032900023FF1D4B83F308881C4C636943F40073C0
:1032A0006361E02384F822300025E5772576657692
:1032B000A57684F82050636A43F4E023636284F8BF
:1032C0002350FEF74DF8FDF7C9FD4FF0FF33A36221
:1032D000E362FEF767F9FEF7F7F801248DF80D4079
:1032E0008DF80C40269527952995094BC3F808D0F1
:1032F000FFF7E6FE2046FFF7EFFE0220FFF7ECFEA9
:10330000FFF792FFFFF758FF8010002000ED00E06C
:10331000D40700204FF02003EFF3118183F31288CC
:10332000BFF36F8F0A4B9B6A834204D11A6F084B1D
:103330009A6207E0134613B11A6F8242FAD10BB1B9
:10334000026F1A6781F31188BFF36F8F704700BF58
:10335000D407002008B553EA020102D102F09FF918
:1033600008BD0249183000F00BFDF9E78B5700004B
:103370002DE9F04F85B004460F4615461E46DDF890
:1033800038A0DDF83C90DDF84080DDF84CB000F16D
:1033900058038365C365129B0422119902F083F9D7
:1033A0002A463946204602F061F90546CDF80880E4
:1033B000CDF80490CDF800A03346024639462046A9
:1033C000FDF714FE002363652666C4F864A0C4F804
:1033D0006890C4F86C804FF02003EFF3118283F300
:1033E0001288BFF36F8F134B996A21679C6282F337
:1033F0001188BFF36F8FBBF1000F13D01F22594606
:1034000004F1740001F089FA002384F89330094B29
:103410009B685BB1D3F8A430C4F8A430284605B04B
:10342000BDE8F08F002384F87430F0E7C4F8A430CE
:10343000F4E700BFD407002030B587B0214C14E07A
:10344000E36A0593236A0493E3690393A3690293F0
:103450006369019323690093E368A2686168206847
:10346000FFF786FF23685C653034174B9C42E7D337
:1034700000F028F9134C00E03034134B9C421CD26E
:10348000606AB0F1FF3FF7D0256820EAE070C1170D
:10349000C90341EA5041C00340F2E733C0184FF47A
:1034A0007A724FF0000341F10001FCF729FE024659
:1034B0000B462846FFF74EFFDEE700F0A7FA07B0FD
:1034C00030BD00BF185C0000185C000008B501E0CA
:1034D000FDF7CAFC4FF02002EFF3118382F312884C
:1034E000BFF36F8F02F027FA054B9861054B1B78ED
:1034F000002BEDD0FDF7DCFB0028EBD1E8E700BFA7
:10350000D40700201608002038B504464FF02003E9
:10351000EFF3118583F31288BFF36F8F02F0B0F9D8
:1035200048B10022C0F8AC2002F013F92946074840
:1035300000F0B2F838BDA368E268934203D00122DC
:103540001344A360F2E70022FAE700BF000800205E
:1035500010B582B04FF02004EFF3118184F312888C
:10356000BFF36F8F846844B1013C846081F311889C
:10357000BFF36F8F002002B010BD53EA020406D0E3
:10358000009201930246054800F0EAF9F3E781F35F
:103590001188BFF36F8F6FF00F00ECE70008002079
:1035A000C3897F2B0ED8437B13F01F0F0CD190F9EA
:1035B0000E20084B1B689A4208DB074B984207D045
:1035C000012070470020704700207047002070479E
:1035D0000020704704080020F0000020B3F1FF3FF6
:1035E00008BFB2F1FF3F00D1704708B5024918305B
:1035F00000F0C6FB08BD00BF8B57000010B5074B9D
:103600001C6804B910BDFEF745FE0444044B1C6160
:103610000021024B186802F0A5F9F3E70808002022
:10362000D407002070B504460E4600234FF0200258
:10363000EFF3118582F31288BFF36F8F0EE002283B
:10364000B8BF02201860114B1E60114B9868FFF73D
:10365000D5FF85F31188BFF36F8F0123A3B90C4BFE
:1036600000221A61610CE00340F2E733C0184FF406
:103670007A724FF0000341F10001FCF741FD054B68
:103680001860002CDBDCDEE770BD00BF0408002002
:10369000D40700200808002008B50B4659B9EFF3FD
:1036A000058242B9064AD0699268904203D0084622
:1036B000FDF744FC03E083F31188BFF36F8F08BD6F
:1036C000D407002000234FF02002EFF3118182F392
:1036D0001288BFF36F8F09E0064B9A68D37B013BDA
:1036E000D37381F31188BFF36F8F0123002BF3D0C5
:1036F000704700BFD407002038B50446104802F0D8
:1037000021F8054670B184B90E4B9B685A7B12F0C4
:103710001F0F0AD1AA6942B9DA897F2A05D9094A55
:10372000D3610BE0074BDD68EDE7064B9B68AB42CE
:1037300002D02846FFF762FF024BDD6138BD00BFB3
:10374000F4070020D407002038B50546427B90F9E5
:103750000D30002B0ADB6B7B63F07F036B731B4B1D
:1037600053F8204F9C4210D100240EE002F07F025B
:1037700042730146164801F0CFFFECE763686B60C7
:103780002C601D60656017E000246CB1214628465E
:1037900001F09EFF0028F1DC002CF6D00B4B5B6A99
:1037A0009C42F1D02468F0E7084B5A6A03F12001EB
:1037B00029606A6015605D62044B9868A84214BF76
:1037C00000200120FFF798FF38BD00BFD40700207C
:1037D000F407002038B50446074B9D686B7B13F057
:1037E0001F0F04D02846FFF709FF204638BD2846A2
:1037F000FFF7AAFFF6E700BFD4070020F8B505469B
:103800004FF02003EFF3118683F31288BFF36F8F1D
:10381000154B9868154B1B68984211D03446134BD2
:1038200000221A60124B1B68B3B1FFF7B9FE98B1C2
:103830000D4B1B69AB420ADD5B1B0B4A13610EE0AB
:10384000FFF7DCFE86F31188BFF36F8F0BE0304685
:10385000FFF7C0FF044602E0034B00221A6184F325
:103860001188BFF36F8FF8BDD40700200008002037
:1038700008080020427B90F90D30002B33DB70B537
:10388000044612F01F0F01D1866906B170BD62F0C7
:103890007F024273144B53F8205F9D4208D1354696
:1038A00006E06B68636025601C606C6017E035465D
:1038B0006DB12946204601F00BFF0028F1DC002DF8
:1038C000F6D0094B5B6A9D42F1D02D68F0E7064BBC
:1038D0005A6A03F120012160626014605C6200207A
:1038E000FFF70AFFD2E77047D407002010B54FF06A
:1038F0002003EFF3118483F31288BFF36F8F437BB0
:1039000013F0040F04D184F31188BFF36F8F10BD3F
:1039100023F004034373FFF7ADFF21460148FFF78F
:10392000BBFEF4E70C08002010B50446427B90F97A
:103930000D30002B08DB084B9868A04214BF002014
:103940000120FFF7D9FE10BD02F07F02427301464D
:10395000024801F0E1FEEEE7D4070020F407002062
:1039600010B50C4611460A4882680A4B1A604FF09F
:103970002002EFF3118382F31288BFF36F8FDDE92A
:103980000223806801F070FF2046FDF7D7FA10BDD2
:10399000D40700200008002038B50446183001F094
:1039A000ACFF00234FF02002EFF3118582F3128861
:1039B000BFF36F8F10E0637B43F010036373114B11
:1039C0009868A04214BF00200120FFF795FE85F300
:1039D0001188BFF36F8F012363B9627B94F90D30B7
:1039E000002BE8DA02F07F0262732146064801F0FC
:1039F00093FEE0E7034B9B68A34200D038BD01F083
:103A00007FFEFBE7D4070020F407002010B5002359
:103A10004FF02002EFF3118482F31288BFF36F8F0F
:103A20000CE0094B9A68D37B0133D3730020FFF776
:103A300063FE84F31188BFF36F8F0123002BF0D056
:103A400001F05EFE10BD00BFD4070020437B13F0E1
:103A5000080F2AD110B5044643F00802427323F040
:103A6000200242F00802427312F0800F13D1A368C3
:103A700013B1204601F058FE04F1180001F03DFF9B
:103A800004F1580001F0B0FE0120FFF735FE20469A
:103A9000FFF740FC10BD03F05F0343F008034373DE
:103AA0000146024801F038FEE1E77047F4070020C4
:103AB00008B5044801F006FF00210846FFF7B2FDF3
:103AC00008BD00BFF0070020F8B54FF02003EFF36A
:103AD000118683F31288BFF36F8F1D4CA1684B7B57
:103AE00003F07F034B7304F12007384601F014FE06
:103AF000A5686B7B63F07F036B73246ABC4208D1BB
:103B0000002406E063686B602C601D60656017E050
:103B100000246CB12146284601F0DAFD0028F1DCD2
:103B2000002CF6D00A4B5B6A9C42F1D02468F0E787
:103B3000074B5A6A03F1200129606A6015605D62D3
:103B40000120FFF7D9FD3046FDF7F8F9F8BD00BFB9
:103B5000D40700202DE9F04150EA010338D0044693
:103B60000E466FF001031B1A4FF0FF3262EB0102A9
:103B7000012B72F100022FDB6FF001052D1A4FF0BF
:103B80002003EFF3118883F31288BFF36F8F144F74
:103B9000B868144B1860FFF7C7FEB8682246334672
:103BA0001149183000F0ECF8BA68537B43F0100369
:103BB00053734046FDF7C2F901F0FFFE281A63EB8C
:103BC0000303012873F1000300DA0020BDE8F0814F
:103BD000FFF77AFF0020F9E701F0EFFE0519CEE7C5
:103BE000D4070020000800208B57000008B5B1F171
:103BF000FF3F08BFB0F1FF3F18D0FFF7ABFFC21780
:103C0000510141EAD06143011B1A61EB02018900B5
:103C100041EA93719B001B1842EB0102D20042EA79
:103C20005372C3F3103343EA424008BD034B986814
:103C3000FFF7B2FE4FF0FF30F7E700BFD4070020D8
:103C4000014B9868704700BFD407002070B54FF053
:103C50002003EFF3118583F31288BFF36F8F2E4695
:103C6000037B13F0010F09D10446437B13F0080FC7
:103C70000FD085F31188BFF36F8F09E085F31188AA
:103C8000BFF36F8F404080F311884FF0040002DFD4
:103C900070BDFFF7DBFE084B9B68A34204D086F3A0
:103CA0001188BFF36F8FF3E7EFF30583002BF6D195
:103CB0002846FDF743F9F2E7D407002008B5064887
:103CC000064A121A064901F0CDFC064A0649074881
:103CD00001F0C8FC08BD00BF00000020CE0000209D
:103CE0007C5F0000000000007C5F000000000020FE
:103CF000034B1868984200D070470020FCE700BFD3
:103D0000BC00002030B1044A5268904201D00068E3
:103D100070470020704700BFBC00002008B5044B6E
:103D20001B680BB1002008BDFEF7B4FAFBE700BF2B
:103D30000C08002010B5FFF7DBFF0446FFF7EEFF8D
:103D40007CB1236962691B1A62EBE072B3F1004F28
:103D500072F1000108DA002A01DB184606E00023B0
:103D6000FBE76FF0004001E06FF00040034B1B6980
:103D700013B1834200DA184610BD00BFD4070020FB
:103D8000B3F1FF3F08BFB2F1FF3F7BD02DE9F04711
:103D9000044692461D46816000234FF02002EFF357
:103DA000118782F31288BFF36F8F26E01AF10108A2
:103DB00045F10009FFF7B2FF18EB000349EBE07093
:103DC000236160613BE0521A66EB030302614361C9
:103DD0004368636020601C60446005E02A4B5A68B9
:103DE0002360626014605C60FFF782FF84423AD017
:103DF00087F31188BFF36F8F0123002B40D1534607
:103E00006FF00101B1EB0A014FF0FF3060EB0502EA
:103E1000002ACBDB1D4A116852685B1842EB050291
:103E20006FF00101C91A60EB020308461A46012926
:103E300073F1000301DA0120002220616261FFF7C3
:103E400057FF0028CAD00269466921696369914217
:103E500073EB060EB7DB891A63EB0603216163611E
:103E6000FFF750FFEDE7FFF765FF034618B1084A7B
:103E700012698242BCD000211846FEF7CFF9B7E79D
:103E8000BDE8F087704700BFBC0000205002002052
:103E9000D407002070B50446FFF7B0FC4FF02003B4
:103EA000EFF3118683F31288BFF36F8F284B1C60EA
:103EB00021E0284A136851685B1941EBE5711360F2
:103EC000516000220023C4E90423204601F0FEFCD7
:103ED00086F31188BFF36F8FA368204698474FF091
:103EE0002003EFF3118683F31288BFF36F8F184A14
:103EF00013685B1B1360FFF7FBFE044638B10569CE
:103F00004169134B1A68D317AA428B41D1DA44B1E5
:103F1000236962690E4909685B1A62EBE1722361E9
:103F200062610C4A0A4D2868136851681B1841EBFE
:103F3000E0711360516000242C60FFF7FBFE214606
:103F4000FEF76CF986F31188BFF36F8F70BD00BF69
:103F50000C0800205002002010B500224FF0200372
:103F6000EFF3118483F31288BFF36F8F134611466A
:103F70000CE0FFF7D3FE074A13685168C31841EB02
:103F8000E07184F31188BFF36F8F0122002AF0D013
:103F9000184610BD5002002008B5024800F006F88F
:103FA00008BD00BF4C5F0000002070470FB400B593
:103FB00083B004A951F8040B0191FCF723FA03B074
:103FC0005DF804EB04B0704708B504460846114696
:103FD0001A46A047FFF734FEFDF75CFA01F007012F
:103FE000038B23F007030B43038370472DE9F04154
:103FF00006460F469046816821B10C683CB131B944
:104000000C4604E00C4602E0234621461C4669B1FA
:104010004D6843463A463046A847002CF4D0236802
:10402000002BF2D0002CF0D12346EEE7BDE8F08162
:10403000038B13F0070303D102680AB10320704712
:10404000022B03D0012B06D000207047428B002AA0
:10405000F8D10420704703680BB105207047002099
:10406000704710B504468C46038B002A07DB03F02B
:1040700007035A1F012A0ED9042B36D010BDD0E9F0
:1040800000018CE8030000232360636001212046C7
:10409000FFF7A4FFF2E7D0E900018CE8030000225B
:1040A00022606260062B1BD1DCF8003053B1628BBA
:1040B000013262831A461B68002BF7D0002AF5D123
:1040C0001346F3E702212046FFF788FF2046FFF75B
:1040D000AFFF0028D2D0238B43F020032383CDE70A
:1040E00000212046FFF77AFFF0E70021FFF776FF77
:1040F0002046FFF79DFF0028C0D0238B43F020030C
:104100002383BBE750B110B50C4651B1081D00F038
:10411000C4F810B9A368032B06D810BD6FF01500C2
:1041200070476FF01500F8E76FF01500F5E72DE91F
:10413000F04107460C4616461D461946201D00F064
:10414000C3F828B180462B46324621463846C04740
:10415000BDE8F0812DE9F04180460C4617461E4629
:1041600004E033463A464046FFF7E1FF216831B1AB
:104170000D68256063688B42F3D16560F1E7BDE8A7
:10418000F08108B54FF0200CEFF311828CF3128808
:10419000BFF36F8F41610121FCF742F908BD03466F
:1041A00070B181B10A688AB14A6892B10020186082
:1041B00058609860D86018615861986119617047BB
:1041C0006FF0150070476FF0150070476FF0150025
:1041D00070476FF01500704770B505460E46FFF743
:1041E00091FF041E30DB4FF02003EFF3118283F3C5
:1041F0001288BFF36F8F9646B5F818C00CF0070C05
:104200006B8B4FF6FF718B422CD06446BCF1020FD2
:1042100008D0BCF1060F19D8DFE80CF01E181818EA
:104220001E2A1E0001336B8301230021084628B19A
:1042300000203060686808B306606E6009BB8EF3CA
:104240001188BFF36F8F0BBB204670BD6FF0040465
:10425000002319461846EAE7BCFA8CF14909002305
:104260000120E4E76FF00A04002319461846DEE750
:104270006FF08504002319461846D8E76E602E605B
:10428000DCE702212846FCF7CBF8DDE70023624695
:1042900031462846FFF74BFFD6E7024658B1436840
:1042A00003F00303012B03D0032B07D1036843B1B1
:1042B0000020906070476FF0150070476FF0150098
:1042C00070476FF0150070470346426802F0030222
:1042D0008160032A03D1006800225A6070470020E1
:1042E000FAE784460268002006E000EB8000013215
:1042F00003EB4003A3F130001378A3F13001092947
:10430000F3D9CCF80020704730B583B00446019152
:10431000037843F0800303700D460B782A2B18D0E6
:1043200001A8FFF7DEFF019B9D420FD0237843F0E9
:10433000800323706060DBB2C3F34003002810DB0E
:1043400000221343227863F341022270019803B0E4
:1043500030BD437843F001034370084601300190BB
:10436000F5E70122EDE710B582B001910B782E2B15
:1043700014BF00230123427863F341024270C3B1AA
:104380000446019B5A1C01925B782A2B13D001A88A
:10439000FFF7A7FFA0602378C3F34003002812DBD8
:1043A00000221343227863F341022270019802B085
:1043B00010BD0846FBE7437843F004034370104602
:1043C00001300190F3E70122EBE702460B784C3B0A
:1043D0002E2B5BD8DFE803F04F5A5A5A5A5A5A5AD2
:1043E0005A5A5A5A5A5A5A5A5A5A5A5A5A5A5A5A2D
:1043F0005A5A5A5A185A3A5A295A5A5A5A5A5A5AB0
:10440000485A5A5A5A5A4100481C4B78682B05D0D2
:104410005378022161F3C60353707047537801202B
:1044200060F3C6035370881C7047481C4B786C2B94
:1044300005D05378032161F3C60353707047537856
:10444000042060F3C6035370881C7047537805201E
:1044500060F3C6035370481C70475378062060F31E
:10446000C6035370481C70475378072060F3C60397
:104470005370481C70475378082060F3C60353708C
:10448000481C137843F002031370704753786FF39E
:10449000C60353700846704700B50246084610F838
:1044A000013BD370782B17D86E2B29D2692B13D8E8
:1044B000582B17D3A3F1580C5FFA8CFC012101FA99
:1044C0000CF111F4624F14D140F6010C11EA0C0FFB
:1044D00055D111F4043F3AD1137843F0010313701E
:1044E000002142E0412B04D0F6D3453BDBB2022B46
:1044F000F2D89378042161F302039370012134E030
:10450000A3F16E01C9B24FF0010C0CFA01FC40F2AC
:1045100082411CEA010F14BF4FF0010E4FF0000E54
:104520002DD11CF0240F14BF0121002139D11CF022
:10453000010CD1D093784FF0030E6EF30203937009
:10454000537803F07803402B0FD161460DE091784A
:104550004FF0010C6CF302019170517801F0780179
:10456000402913D0632B18D000211378C3F3400CDB
:1045700041EA0C0161F3410313705DF804FB91788B
:104580004FF0020C6CF302019170E6E792F800C064
:104590004CF0010C82F800C0E4E7003918BF01219B
:1045A000E3E793784FF0030C6CF3020393705378B6
:1045B00013F0780FD9D17146D7E710B504460846F5
:1045C000002323606360A3604B78252B14D0013156
:1045D0002046FBF7DBFF01462046FFF795FE01462C
:1045E0002046FFF7C0FE01462046FFF7EEFE0146DB
:1045F0002046FFF751FF10BD0230E370FBE76F2844
:104600000CD005D970280BD078280BD1102070471A
:10461000582801D00A2070471020704708207047A2
:10462000102070470A2070472DE9F84F05460C46C8
:10463000934699460A9FD078A0F1410AFFF7DFFF21
:10464000064615E0BAF1190F20D8D2B23732D2B2ED
:1046500007F8012D3246434628462146FBF750FD18
:10466000B54274F1000415D34F4513D905460C46E5
:104670004FF000083246434628462146FBF740FDEE
:10468000092ADFD8D2B23032D2B2E1E7D2B2573201
:10469000D2B2DDE79BF8003013F0200F03D0082ED4
:1046A00004D0102E09D03846BDE8F88F9BF80230B0
:1046B00043F008038BF80230F5E79BF8023043F033
:1046C00010038BF80230EEE74378C3F3C303072BE4
:1046D00018D8DFE803F00406080A0C1014160A6064
:1046E00070470A7070470A8070470A607047D31796
:1046F0000A604B607047D3170A604B6070470A60CE
:1047000070470A6070472DE9F04107460E4614468F
:104710009846002506E0314614F8010BB8470028FA
:1047200009DB01354445F6D3B8F1000F02D12378F7
:10473000002BF0D12846BDE8F081704700B501F0AC
:104740001F0201239340490900EB8100D943BFF3C5
:104750005B8F50E8002F02EA010C40E800CEBEF16A
:10476000000FF6D1BFF35B8F134214BF012000206E
:104770005DF804FB01F01F0201239340490900EB9F
:104780008100BFF35B8F50E8002F1A4340E80021FF
:104790000029F8D1BFF35B8F70470020704708B540
:1047A00000F042FF08BD08B501460068FFF7F7FFBB
:1047B00008BD08B540B2FCF771FB08BD08B5013172
:1047C00040B2FCF779FB08BD08B500210120FFF7D6
:1047D000E6FF08BD08B5FCF791FBFCF783FC08BDBC
:1047E0000020704700230B70704708B5002313703A
:1047F000CB1E092B1AD8DFE803F005090D11191992
:10480000191919141146FCF725FD10E00021FCF7D9
:10481000D1FC0CE00021FCF773FC08E0FCF79AFCEB
:1048200005E01146FFF7DEFF002000E0002008BD94
:1048300043685A1E134206D11F2B06D903681A4239
:1048400005D00020704700207047002070470120ED
:104850007047072805D810B50446FCF755FE2046DA
:1048600010BD6FF01500704700B585B00B6801935F
:104870004B688A68202B12D9B3F1004F11D8013B45
:10488000B3FA83F3C3F11F035B0003F03E0313434A
:10489000039301A9FFF7DDFF05B05DF804FB0823D2
:1048A000F5E73E23F3E72DE9F84380460F469946A6
:1048B0001646002509E02146F0B2FFF7D5FF06466F
:1048C00010F1160F14D001360135BD4210DA05EB98
:1048D000450408EB84046268002AF5D0B9F1000FA2
:1048E000E9D02046FFF7A4FF0028E4D16FF01506B9
:1048F0003046BDE8F88308B5FCF71AFE08BD08B5D8
:10490000FCF720FE08BD024602E002F8013B01313F
:104910000B78002BF9D1137070470346A2B110B485
:104920000C782CB103F8014B0131013A002AF7D180
:1049300022B1002103F8011B013AF9E710BC7047CE
:10494000002103F8011B013A002AF9D17047034600
:10495000002001E0013301301A78002AFAD17047B3
:104960000346002001E0013301301A780AB1884281
:10497000F9D3704780EA010313F0030F01D0034617
:1049800023E0034613F0030F0FD00AB311F801CB55
:1049900003F801CB013AF5E711F801CB03F801CB9D
:1049A000013A002AF8D110BC7047032A0DD910B47F
:1049B00051F8044B43F8044B043A032AF8D8F0E7C3
:1049C00011F801CB03F801CB013A002AF8D1704766
:1049D00070475FFA81FC034602E003F801CB013A1D
:1049E00013F0030F02D0002AF7D10FE0C9B241EA59
:1049F000012141EA0141032A06D943F8041B043A84
:104A0000F9E703F801CB013A002AFAD170474FF0D9
:104A1000FF30704708B5C0B24FF08043C3F81C05A3
:104A2000FCF7E8FD0123C0F80035BFF34F8F20BF2E
:104A3000FDE7062800D0704708B54FF08040FFF72B
:104A4000F1FF002383F31188BFF36F8F704719B113
:104A500001290ED00020704722B1D0F8183403F09D
:104A600003031360D0F8183413F4803F0ED10020F4
:104A7000704722B1D0F80C3403F001031370D0F862
:104A80000C3413F4803F03D100207047012070479D
:104A900001207047006901EB410189003831084469
:104AA0007047406800EBC10070470069C1EBC1016D
:104AB00000EB8100704708B5C9B2FFF7EBFF8068D3
:104AC00000F0070008BD4FF02003EFF3118283F3DD
:104AD0001288BFF36F8F036813F0C00301D08B42BD
:104AE00007D101230360002082F31188BFF36F8F89
:104AF00070474FF0FF30F7E74FF02003EFF31182DC
:104B000083F31288BFF36F8F036803F0C00C03F0C8
:104B10000703012B08D08C4509D04FF0FF3082F3FA
:104B20001188BFF36F8F704701600020F7E76FF0C7
:104B30007700F4E74FF02003EFF3118283F312883C
:104B4000BFF36F8F036803F0C00343F002030360F9
:104B500082F31188BFF36F8F7047F8B506460C4695
:104B6000FFF798FF05684768002340F8083BFFF708
:104B7000E1FF1DB13A4621463046A847F8BD70B561
:104B800006461546CCB22146FFF784FF2946083079
:104B9000FFF799FF002806DB21463046FFF781FF2B
:104BA00043689847002070BD08B58022FFF7E7FFF3
:104BB00008BD2DE9F041064690461F46CDB2294674
:104BC000FFF768FF044606990830FFF795FF0028B5
:104BD00009DBC4F80080676029463046FFF761FFB3
:104BE000036898470020BDE8F08110B582B08024AA
:104BF0000094FFF7DEFF02B010BD10B51446C9B235
:104C0000FFF753FF0021A04710BD08B5012000F0B9
:104C100026FC08BD08B5002000F021FC08BD08B541
:104C2000012000F06CFC08BD08B5002000F067FC16
:104C300008BD08B520EAE070C117C90341EA504138
:104C4000C00340F2E733C0184FF47A724FF000030C
:104C500041F10001FBF754FAFEF7C8FF08BD08B5A3
:104C60001046FEF751FC08BD0B4639B111681960BA
:104C700041688A4209D000231360704713680360BB
:104C800041688A42F7D14360F5E74360F3E708B52E
:104C90000A460368002101E019461B682BB19342C4
:104CA000FAD1FFF7E1FF012000E0002008BD70B558
:104CB00004460D461646036833B1FFF7E8FF70B9A6
:104CC0001EB96FF0150006E032B123682B60256035
:104CD000636843B1002070BD6FF01500FBE7002E44
:104CE000F3D10020F7E765600020F4E770B50E46C9
:104CF0001546016821B10C683CB131B90C4604E09D
:104D00000C4602E0234621461C4671B18A682A40BF
:104D100002D04B6830469847002CF3D02368002B14
:104D2000F1D0002CEFD12346EDE770BD20F0F90063
:104D30008005800DB0F5837F33D016D806282CD09F
:104D400006D9B0F5807F0DD101230B70002070478C
:104D500000B3022803D104230B70002070476FF0CA
:104D6000150070476FF01500704740F2022398421B
:104D70001BD0B0F5407F03D103230B700020704798
:104D8000B0F5007F03D102230B70002070476FF055
:104D90001500704700200870704706230B70002034
:104DA000704707230B700020704705230B7000200D
:104DB000704710F0100F04D110F0200F03D1002025
:104DC0007047032070470120704743685B68D3F841
:104DD00010350B600020704743685B6802EA0100F1
:104DE00021EA0201C3F80805C3F80C15002070473A
:104DF00043685B68C3F808150020704743685B6828
:104E0000C3F80C150020704743685A68D2F804357F
:104E100021EA03000B40C2F80805C2F80C35002057
:104E20007047B0F5800F07D0B1F1C06F0DD0B1F170
:104E3000007F08D001207047B1F1007F01D005202C
:104E4000704704207047022070470320704708B560
:104E500000690430FFF72BFF08BD10B500F01F04F8
:104E60004009FCF7AFFD30B1014600690122A240C4
:104E70000430FFF73BFF10BD43681A684FF0200174
:104E8000EFF3118381F31288BFF36F8FD2F82011F3
:104E900031B10021C2F82011D2F820110121D160D6
:104EA00083F31188BFF36F8F704738B545682C685E
:104EB000D4F8043313F4807F02D0D4F82031D3B96E
:104EC0006B6813F0100F15D04FF02002EFF3118331
:104ED00082F31288BFF36F8FD4F8582112B10022E9
:104EE000C4F800254FF48002C4F8082383F3118826
:104EF000BFF36F8F38BDFFF7BFFFE1E770B582B03A
:104F000005460C4606694B79012B06D0032B11D0C0
:104F10006FF08502104602B070BD00238DF802309C
:104F2000A379032B46D1E37943B1012B15D06FF060
:104F30008502EFE710238DF80230F1E700238DF8AA
:104F400000300023ADF804302379012B2AD0022B46
:104F500024D033B16FF08502DCE701238DF80030F7
:104F6000EFE78DF8013021682846FCF743FE024642
:104F700018BB6B6819689DF801309DF80200034367
:104F8000BDF8040003439DF800000343C1F86C35ED
:104F9000043694E8030086E80300BBE70E238DF88F
:104FA0000130E0E70E238DF801304FF48073ADF847
:104FB0000430D8E76FF08502ACE76FF08502A9E70F
:104FC0000A460369043393E8030082E803000020E3
:104FD000704743681B68D3F88004C3F880047047A7
:104FE00043681A685B6803F00203D2F8581129B9C4
:104FF00033B9D2F820312BB9002070470120704717
:10500000002070470120704743681B680822C3F8DE
:105010000025704710B543681C68C4F84415C4F8EF
:1050200048250022C4F82021D4F82011C4F85821C2
:10503000D4F858215B6813F0100F02D10123A3604C
:1050400010BD0121FFF7E0FF4FF48003C4F80433E3
:10505000F4E710B4046943681B68D3F810215AB10F
:10506000626912780A700020C3F81001D3F8102189
:1050700001221A6010BC70474FF0FF30FAE708B504
:1050800020EAE070C117C90341EA5041C00340F271
:10509000E733C0184FF47A724FF0000341F100017A
:1050A000FBF72EF8FEF7A2FD08BD70B5064613E02B
:1050B0007DB14FF02003EFF3118483F31288BFF327
:1050C0006F8F3046FFF78CFF98B984F31188BFF3D8
:1050D0006F8F0120FFF7D3FF64243046FFF780FF76
:1050E00005460028E4D1012000F027F9013CF4D165
:1050F000DEE7204670BD10B582B0044601AA00F07C
:10510000C2F8002805DB019B226819791868FDF7B1
:10511000EBF802B010BD2DE9F041044647683E6847
:10512000D0F810800021C6F80015C8F80000F86813
:10513000FFF7E1FF051E35DB08F104012046FFF70C
:10514000DDFE054670BB7B6813F0020F2DD10823EE
:10515000C6F800353B7A5BB9C6F81031D6F8103185
:10516000D8F81430C6F834350123C6F83835336022
:105170007B6813F0020F03D14FF48073C6F8043339
:105180007B6813F0100F03D04FF48003C6F804338C
:10519000D8F81030C6F844350023C6F84835012346
:1051A000B360F3602846BDE8F08141463046FCF725
:1051B000F7FD0028CBDA0546F4E710B504460022D7
:1051C00001210220FFF7FAFA0220FFF7F2FA00218C
:1051D0002046FFF7A0FF10BD10B5044600220121B4
:1051E0002820FFF7EBFA2820FFF7E3FA00212046FA
:1051F000FFF791FF10BD7047401A20F07F407047C5
:1052000000F150039B009BB203F1804303F5883308
:105210001868003818BF0120704700F150039B0048
:105220009BB203F1804303F5883300221A601B68A8
:10523000704720F07F4070474FF02003EFF311805C
:1052400083F31288BFF36F8F704780F31188BFF329
:105250006F8F7047F0B583B0044617461D46FCF7C4
:105260001DFE0646099B0193089B00933A462B4678
:105270002046FCF7E1FE054631462046FCF764FE79
:10528000284603B0F0BD00B54368136001E0083361
:105290001360136890F808C0D0F804E00EEBCC0C53
:1052A000634505D293F805C08C45F0D1002001E09C
:1052B0006FF001005DF804FB08B50020FFF7AAFBC2
:1052C0004FF08053D3F830310D2B01D000207047C0
:1052D000012070474FF08053D3F830310D2B01D0AF
:1052E00000207047012070474FF08053D3F83031D1
:1052F0000D2B01D000207047012070474FF08053E4
:10530000D3F83021D3F834310D2A01D00020704772
:105310000BB1012070470020704708B5FFF7EEFF82
:1053200038B14FF01023D3F808224FF08043C3F870
:10533000582508BD08B5804708BD08B500F041FBF9
:1053400008BD19B101290ED00020704722B1D0F854
:10535000183403F003031360D0F8183413F4803FBB
:105360000ED10020704722B1D0F80C3403F00103B5
:105370001370D0F80C3413F4803F03D10020704731
:1053800001207047012070470020704708B50020B9
:10539000FBF7A6FD00B108BDFFF70BFAFBE770B500
:1053A00082B0064618B1012816D002B070BD4FF089
:1053B00080430222C3F808230022C3F80421D3F853
:1053C00004210122DA6001238DF807309E420FD0BC
:1053D000002542F2107413E04FF080430122C3F81D
:1053E00008230021C3F80011D3F800115A60EAE73E
:1053F0000DF10705EDE70120FFF79FFF013CD4D039
:105400002A4631464FF08040FFF79BFF0028CCD062
:10541000002DF0D09DF80730012BECD0C5E738B552
:1054200004460368012B02D033B9012300E00123B5
:105430001D461BB1284638BD0023F9E70020FFF7C1
:10544000AEFFFFF7A1FF2060F4E708B5FFF79EFF6E
:10545000FFF79AFF4FF08043C3F8180508BD10B15D
:10546000012840D0704700B583B04FF08042D2F899
:10547000183403F003030193D2F8183413F4803F77
:105480001BD14FF08043D3F8143413F0010F18D11F
:10549000FFF77AFF01904FF08043019AC3F8182577
:1054A0000022C3F80421D3F804210222C3F8042304
:1054B00001229A6003B05DF804FB01A8FFF7AFFF7B
:1054C000E9E74FF08043D3F81C3403F00303019362
:1054D00001A8FFF7A4FF0028DDD04FF0804302228F
:1054E000C3F80423E6E74FF080430022C3F800210D
:1054F000D3F800210122C3F804231A60704708B5CD
:10550000FFF74DFF08BD10B401F5A27150F821401E
:1055100024F44F3424F4407440F8214050F82140E2
:10552000120202F47C521B0403F440331A43144366
:1055300040F8214010BC704710B401F5A27150F83A
:10554000214024F4991424F4F85440F8214050F8F0
:105550002140120202F47C521B0403F440331A432C
:105560009DF804301B0503F480131A43144340F8DC
:10557000214010BC704700B585B08DF80F100DF1BB
:105580000F030193002100910B460A46FDF7FAF83C
:1055900005B05DF804FB10B50446FDF791F928B19C
:1055A0002046FDF777F918B1012000E0002010BD7A
:1055B0000020FCE708B5FDF783F980F00100C0B2D8
:1055C00008BD70477047032894BF00200120704732
:1055D00010B50446024602210020FDF72FF90023F2
:1055E000012B04D854F823201AB90133F8E700201E
:1055F00010BD0120FCE708B5FDF72CFD08BD08B57E
:10560000FFF7F9FF002008BD60B1C3685A7812F0B7
:10561000010F03D01B781BB100207047002070479A
:105620000120704700207047F8B505460E464FF040
:105630002003EFF3118783F31288BFF36F8FFEF718
:10564000FFFA044631462846FFF736FE87F31188F5
:10565000BFF36F8F2046FBF71DFFF8BD08B5FFF7BE
:10566000B8F908BD08B5FFF785F908BD10B40346C1
:10567000073222F0070202F1400001F14004C3F8B2
:105680009840C3F89C200022C3F8A020084410BC16
:105690007047EFF30580003818BF0120704708B548
:1056A000FEF724F908BD10B400248460037342732C
:1056B0008173C4738461C46110BC704708B5FBF783
:1056C000D3FAFFF798FD08BD002070478068704747
:1056D00090F90E3091F90E00834201D0C01A704744
:1056E0000020704708B5034628B9EFF3058212B9C8
:1056F000FBF724FC03E083F31188BFF36F8F08BD31
:1057000008B54FF02003EFF3118083F31288BFF345
:105710006F8FFFF7E7FF08BD4A680B6813605A6098
:1057200000230B604B60704710B50446FFF7CEFFB7
:105730002146FFF7F1FF637B23F00203637300232D
:10574000A36010BD03460068834200D0704700206C
:10575000FCE738B5044600234FF02002EFF3118533
:1057600082F31288BFF36F8F04E085F31188BFF3D3
:105770006F8F012343B92046FFF7A6FF0028F4D11D
:105780002046FEF777F8F0E738BD70B50446A0F183
:10579000180600234FF02002EFF3118582F31288E0
:1057A000BFF36F8F11E014F80B3C23F0040204F8F0
:1057B0000B2C23F0140304F80B3C3046FEF75AF888
:1057C00085F31188BFF36F8F012363B914F80B3C85
:1057D00013F0280FF4D154F8103C002BE3D03046DE
:1057E000FFF7A2FFDFE770BD38B505462C68A5427C
:1057F0000ED06CB12046FFF797FF04F1180000F0BF
:105800007CF80023C4F8AC302046FEF733F8EDE70F
:1058100038BD70B505460E46FEF786F86B7B43F043
:1058200002036B73FEB1AE603468A64208D1002457
:1058300006E063686B602C601D60656013E0002407
:1058400064B121462846FFF743FF0028F1DC002C15
:10585000F6D073689C42F2D02468F1E773682E603A
:105860006B601D60756070BD70B5044616461D46C0
:10587000FFF7CFFF32462B462046FDF7AFFE70BD47
:1058800070B5064600234FF02002EFF3118582F336
:105890001288BFF36F8F1C4604E085F31188BFF3B5
:1058A0006F8F012363B93046FFF74CFF0446002891
:1058B000F3D0FFF739FF04F1180000F01EF8ECE711
:1058C000204670BD031D43608360704710B50446D9
:1058D000FEF718FA48B102460369416920691B18AE
:1058E000606941EB000113615161626823681360D4
:1058F0005A6000232360636010BD70B50446002326
:105900004FF02002EFF3118682F31288BFF36F8FFE
:105910006FF0150004E086F31188BFF36F8F012349
:105920001D463BB92368002BF5D02046FFF7CEFF7C
:105930002846F0E770BD10B500234FF02002EFF3CA
:10594000118482F31288BFF36F8F4FF0FF3006E0AF
:10595000FEF7F0F984F31188BFF36F8F0123002B5A
:10596000F6D010BDF8B506460F4600234FF02002D2
:10597000EFF3118582F31288BFF36F8F0AE00124E1
:1059800004F00104012800DD7CB985F31188BFF320
:105990006F8F01231C467BB9FEF7CCF9B0F1FF3FB6
:1059A000EDD0B042ECDB0124EAE73946B042A8BFB3
:1059B0003046FCF733FCE8E7F8BD08B5FEF7CCFA53
:1059C00008BD00B9704708B5FBF73EFE08BD70473B
:0859D00064A7FF7F0100000045
:1059D8001916000000000000B5180000205A000049
:1059E800FF55000000000000B91B0000385A0000F5
:1059F800B91B0000505A0000D9510000685A000035
:105A0800BB510000805A0000A919000000000000E6
:085A1800C9200000000000009D
:105A2000805D0000A05D0000B05D0000C4000020AB
:105A30009C020020305C0000CC5D0000EC5D0000AA
:105A40000C5E0000C6000020F00200202A5C00006E
:105A5000DC5D0000FC5D00000C5E0000C800002062
:105A6000FC020020245C0000305E0000605E00004C
:105A7000C05E0000CA0000200C0000201E5C000078
:105A8000405E00008C5E0000C05E0000CC00002084
:085A900028000020185C000052
:105A9800112700003553000000000000C94700002E
:105AA800805A0000AB4E000000000000C94700000B
:105AB80000000000C947000000000000C9470000BE
:105AC800E52F00003553000000000000C947000022
