:100000008051002051580000F59200002558000052
:100010002558000025580000255800000000000069
:10002000000000000000000000000000E15000009F
:100030002558000000000000515000002558000025
:100040005152000051520000515200005152000024
:100050005152000051520000515200005152000014
:100060005152000051520000515200005152000004
:1000700051520000515200005152000051520000F4
:1000800051520000515200005152000051520000E4
:1000900051520000515200005152000051520000D4
:1000A00051520000515200005152000051520000C4
:1000B00051520000515200005152000051520000B4
:1000C00051520000515200005152000051520000A4
:1000D0005152000051520000515200005152000094
:1000E0005152000051520000515200005152000084
:1000F0005152000051520000515200005152000074
:1001000081F0004102E000BF83F0004330B54FEAC8
:1001100041044FEA430594EA050F08BF90EA020F35
:100120001FBF54EA000C55EA020C7FEA645C7FEAC8
:10013000655C00F0E2804FEA5454D4EB5555B8BFEB
:100140006D420CDD2C4480EA020281EA030382EA5C
:10015000000083EA010180EA020281EA0303362DEE
:1001600088BF30BD11F0004F4FEA01314FF4801CC1
:100170004CEA113102D0404261EB410113F0004FD3
:100180004FEA03334CEA133302D0524263EB43038A
:1001900094EA050F00F0A780A4F10104D5F1200E28
:1001A0000DDB02FA0EFC22FA05F2801841F1000183
:1001B00003FA0EF2801843FA05F359410EE0A5F157
:1001C00020050EF1200E012A03FA0EFC28BF4CF088
:1001D000020C43FA05F3C01851EBE37101F000453E
:1001E00007D54FF0000EDCF1000C7EEB00006EEB4B
:1001F0000101B1F5801F1BD3B1F5001F0CD34908D5
:100200005FEA30004FEA3C0C04F101044FEA44522B
:1002100012F5800F80F09A80BCF1004F08BF5FEAB2
:10022000500C50F1000041EB045141EA050130BD92
:100230005FEA4C0C404141EB0101013C28BFB1F5A4
:10024000801FE9D291F0000F04BF01460020B1FAEF
:1002500081F308BF2033A3F10B03B3F120020CDAC2
:100260000C3208DD02F1140CC2F10C0201FA0CF0A0
:1002700021FA02F10CE002F11402D8BFC2F1200C05
:1002800001FA02F120FA0CFCDCBF41EA0C019040BB
:10029000E41AA2BF01EB0451294330BD6FEA040404
:1002A0001F3C1CDA0C340EDC04F11404C4F12002EF
:1002B00020FA04F001FA02F340EA030021FA04F301
:1002C00045EA030130BDC4F10C04C4F1200220FA58
:1002D00002F001FA04F340EA0300294630BD21FA96
:1002E00004F0294630BD94F0000F83F4801306BF5C
:1002F00081F480110134013D4EE77FEA645C18BF50
:100300007FEA655C29D094EA050F08BF90EA020FE6
:1003100005D054EA000C04BF1946104630BD91EADE
:10032000030F1EBF0021002030BD5FEA545C05D1E1
:100330004000494128BF41F0004130BD14F5800420
:100340003CBF01F5801130BD01F0004545F0FE4194
:1003500041F470014FF0000030BD7FEA645C1ABFC9
:10036000194610467FEA655C1CBF0B46024650EA00
:10037000013406BF52EA033591EA030F41F400212C
:1003800030BD00BF90F0000F04BF0021704730B5B2
:100390004FF4806404F132044FF000054FF0000187
:1003A00050E700BF90F0000F04BF0021704730B548
:1003B0004FF4806404F1320410F0004548BF40421D
:1003C0004FF000013EE700BF42004FEAE2014FEA72
:1003D00031014FEA02701FBF12F07F4393F07F4F4D
:1003E00081F06051704732F07F4208BF704793F050
:1003F0007F4F04BF41F40021704730B54FF4607463
:1004000001F0004521F000411CE700BF50EA010265
:1004100008BF704730B54FF000050AE050EA01020E
:1004200008BF704730B511F0004502D5404261EB7E
:1004300041014FF4806404F132045FEA915C3FF4BF
:10044000D8AE4FF003025FEADC0C18BF03325FEA5C
:10045000DC0C18BF033202EBDC02C2F1200300FA0D
:1004600003FC20FA02F001FA03FE40EA0E0021FA32
:1004700002F11444BDE600BF70B54FF0FF0C4CF420
:10048000E06C1CEA11541DBF1CEA135594EA0C0FD2
:1004900095EA0C0F00F0DEF82C4481EA030621EA0D
:1004A0004C5123EA4C5350EA013518BF52EA033548
:1004B00041F4801143F4801338D0A0FB02CE4FF0FA
:1004C0000005E1FB02E506F00042E0FB03E54FF02A
:1004D0000006E1FB03569CF0000F18BF4EF0010E22
:1004E000A4F1FF04B6F5007F64F5407404D25FEA1E
:1004F0004E0E6D4146EB060642EAC62141EA5551D1
:100500004FEAC52040EA5E504FEACE2EB4F1FD0C12
:1005100088BFBCF5E06F1ED8BEF1004F08BF5FEA90
:10052000500E50F1000041EB045170BD06F0004642
:1005300046EA010140EA020081EA0301B4EB5C04EF
:10054000C2BFD4EB0C0541EA045170BD41F48011E7
:100550004FF0000E013C00F3AB8014F1360FDEBF0C
:10056000002001F0004170BDC4F10004203C35DAE8
:100570000C341BDC04F11404C4F1200500FA05F36B
:1005800020FA04F001FA05F240EA020001F000420C
:1005900021F0004110EBD37021FA04F642EB060182
:1005A0005EEA430E08BF20EAD37070BDC4F10C04AC
:1005B000C4F1200500FA04F320FA05F001FA04F270
:1005C00040EA020001F0004110EBD37041F100015C
:1005D0005EEA430E08BF20EAD37070BDC4F1200567
:1005E00000FA05F24EEA020E20FA04F301FA05F2CF
:1005F00043EA020321FA04F001F0004121FA04F277
:1006000020EA020000EBD3705EEA430E08BF20EA46
:10061000D37070BD94F0000F0FD101F00046400080
:1006200041EB010111F4801F08BF013CF7D041EA02
:10063000060195F0000F18BF704703F00046520006
:1006400043EB030313F4801F08BF013DF7D043EAD7
:100650000603704794EA0C0F0CEA135518BF95EA8D
:100660000C0F0CD050EA410618BF52EA4306D1D114
:1006700081EA030101F000414FF0000070BD50EA33
:10068000410606BF1046194652EA430619D094EABD
:100690000C0F02D150EA013613D195EA0C0F05D1A7
:1006A00052EA03361CBF104619460AD181EA0301FB
:1006B00001F0004141F0FE4141F470014FF00000B3
:1006C00070BD41F0FE4141F4780170BD70B54FF04E
:1006D000FF0C4CF4E06C1CEA11541DBF1CEA1355CE
:1006E00094EA0C0F95EA0C0F00F0A7F8A4EB0504B0
:1006F00081EA030E52EA03354FEA013100F08880A7
:100700004FEA03334FF0805545EA131343EA12636F
:100710004FEA022245EA111545EA10654FEA002624
:100720000EF000419D4208BF964244F1FD0404F5DD
:10073000407402D25B084FEA3202B61A65EB030539
:100740005B084FEA32024FF480104FF4002CB6EBF6
:10075000020E75EB030E22BFB61A754640EA0C0076
:100760005B084FEA3202B6EB020E75EB030E22BFB6
:10077000B61A754640EA5C005B084FEA3202B6EBF7
:10078000020E75EB030E22BFB61A754640EA9C00B6
:100790005B084FEA3202B6EB020E75EB030E22BF86
:1007A000B61A754640EADC0055EA060E18D04FEA44
:1007B000051545EA16754FEA06164FEAC30343EAE4
:1007C00052734FEAC2025FEA1C1CC0D111F4801FB1
:1007D0000BD141EA00014FF000004FF0004CB6E7AA
:1007E00011F4801F04BF01430020B4F1FD0C88BF49
:1007F000BCF5E06F3FF6AFAEB5EB030C04BFB6EB54
:10080000020C5FEA500C50F1000041EB045170BD46
:100810000EF0004E4EEA113114EB5C04C2BFD4EB73
:100820000C0541EA045170BD41F480114FF0000EF7
:10083000013C90E645EA060E8DE60CEA135594EA73
:100840000C0F08BF95EA0C0F3FF43BAF94EA0C0F76
:100850000AD150EA01347FF434AF95EA0C0F7FF4EB
:1008600025AF104619462CE795EA0C0F06D152EA3F
:1008700003353FF4FDAE1046194622E750EA410623
:1008800018BF52EA43067FF4C5AE50EA41047FF434
:100890000DAF52EA43057FF4EBAE12E74FF0FF3C99
:1008A00006E000BF4FF0010C02E000BF4FF0010C6A
:1008B0004DF804CD4FEA410C7FEA6C5C4FEA430CE3
:1008C00018BF7FEA6C5C1BD001B050EA410C0CBF32
:1008D00052EA430C91EA030F02BF90EA020F002094
:1008E000704710F1000F91EA030F58BF994208BFFB
:1008F00090422CBFD8176FEAE37040F001007047B8
:100900004FEA410C7FEA6C5C02D150EA013C07D10E
:100910004FEA430C7FEA6C5CD6D152EA033CD3D059
:100920005DF8040B704700BF8446104662468C4653
:100930001946634600E000BF01B5FFF7B7FF002886
:1009400048BF10F1000F01BD4DF808EDFFF7F4FFAF
:100950000CBF012000205DF808FB00BF4DF808ED3A
:10096000FFF7EAFF34BF012000205DF808FB00BF5D
:100970004DF808EDFFF7E0FF94BF012000205DF87F
:1009800008FB00BF4DF808EDFFF7CEFF94BF012034
:1009900000205DF808FB00BF4DF808EDFFF7C4FF2D
:1009A00034BF012000205DF808FB00BF4FEA410280
:1009B00012F5001215D211D56FF47873B3EB6252B1
:1009C00012D94FEAC12343F0004343EA505311F0D8
:1009D000004F23FA02F018BF404270474FF000006A
:1009E000704750EA013005D111F0004008BF6FF0A8
:1009F000004070474FF00000704700BF4A0011D21E
:100A000012F5001211D20DD56FF47873B3EB625268
:100A10000ED44FEAC12343F0004343EA505323FA74
:100A200002F070474FF00000704750EA013002D1E9
:100A30004FF0FF3070474FF0000070474FEA41021F
:100A4000B2F1E04324BFB3F5001CDCF1FE5C0DD92C
:100A500001F0004C4FEAC0024CEA5070B2F1004F76
:100A600040EB830008BF20F00100704711F0804F79
:100A700021D113F13872BCBF01F00040704741F43E
:100A800080114FEA5252C2F11802C2F1200C10FA42
:100A90000CF320FA02F018BF40F001004FEAC12326
:100AA0004FEAD32303FA0CFC40EA0C0023FA02F3CA
:100AB0004FEA4303CCE77FEA625307D150EA0133A0
:100AC0001EBF4FF0FE4040F44000704701F0004070
:100AD00040F0FE4040F40000704700BF53B94AB9EF
:100AE000002908BF00281CBF4FF0FF314FF0FF3036
:100AF00000F00CB8ADF1080C6DE904CE00F01EF862
:100B0000DDF804E0DDE9022304B07047704700BF60
:100B10004FEA410C7FEA6C5C02D150EA013C0AD1F9
:100B20004FEA430C7FEA6C5C02D152EA033C02D1EB
:100B30004FF0000070474FF0010070472DE9F0477B
:100B400086468C460846089E154674461946002B74
:100B500040F0C2808542B2FA82F245D94AB1C2F170
:100B6000200300FA02FC2EFA03F3954043EA0C0C32
:100B700094404FEA154EA8B2BCFBFEF8230C0EFBC6
:100B800018CC08FB00F943EA0C43994528D9EB1827
:100B900008F1FF3704D2994502D9A8F102072B4486
:100BA000A3EB0903A4B2B3FBFEFC0EFB1C330CFB4E
:100BB00000F044EA0344A04214D92C190CF1FF338D
:100BC00004D2A04202D9ACF102032C44241A43EA15
:100BD00007401EB1D440002334607360BDE8F08745
:100BE0004746DDE76346F1E792BB431B01214FEA2D
:100BF000154EAFB2B3FBFEFC200C0EFB1C330CFBFE
:100C000007F840EA0343984562D9EB180CF1FF302E
:100C100004D2984502D9ACF102002B44A3EB08039F
:100C2000A4B2B3FBFEFC0EFB1C330CFB07F744EA3B
:100C30000344A7424ED92C190CF1FF3304D2A7422A
:100C400002D9ACF102032C44E41B43EA0040C0E7A4
:100C5000C2F1200320FA03F1954090402EFA03F3ED
:100C600003434FEA154EAFB2B1FBFEFC0EFB1C1066
:100C7000190C0CFB07F841EA0041884504FA02F41C
:100C800022D969180CF1FF3004D2884502D9ACF1A1
:100C900002002944A1EB08019BB2B1FBFEFC0EFB54
:100CA0001C110CFB07F743EA01439F420ED9EB18D6
:100CB0000CF1FF3104D29F4202D9ACF102012B4466
:100CC000DB1B41EA004192E76046E3E76146F7E754
:100CD0006046A3E76346B7E7834206D916B9002109
:100CE00008467BE7C6E900E0F9E7B3FA83F78FB976
:100CF000834201D3724508D8BEEB020460EB0303C4
:100D000001209C461EB9002168E73846FAE7C6E98B
:100D1000004CF8E7C7F1200CBB4022FA0CF41C434E
:100D20002EFA0CF120FA0CF3B84001434FEA1449B3
:100D30000EFA07F5B3FBF9F81FFA84FE09FB183029
:100D40000B0C08FB0EFA43EA00439A4502FA07F23D
:100D500040D9E31808F1FF3004D29A4502D9A8F12E
:100D600002002344A3EB0A0389B2B3FBF9F809FBA1
:100D7000183308FB0EFE41EA03418E452CD9611859
:100D800008F1FF3304D28E4502D9A8F102032144B1
:100D900043EA0040A0FB0298A1EB0E014145CE467C
:100DA000434602D306D14D4504D2B9EB020E68EB9F
:100DB00004030138002EA6D0B5EB0E0261EB03014F
:100DC00001FA0CFC22FA07F34CEA0303F940C6E9E6
:100DD000003198E74046C5E74346D9E7034613F894
:100DE000012B002AFBD1181A0138704700000000BF
:100DF0002DE9F04F2DED048BB0F840300646ADF6EE
:100E0000FC4DC3F3031203F00F05C3F3032B1B0BBD
:100E10001E3306AF36F842AF049205930C4600F13C
:100E20004E033A4636F8021F01F00F0CC2F800C01C
:100E3000C1F3031CC2F804C09E42C1F3032C4FEA65
:100E40001131C2F808C0D16002F11002EAD10021CC
:100E500057F8042B072AC8BF103A01F10101C8BF97
:100E600047F8042C1829F3D11EAE00F15E07324674
:100E700033F8021F01F00F0CC2F800C0C1F3031CCD
:100E8000C2F804C09F42C1F3032C4FEA1131C2F8EB
:100E900008C0D16002F11002EAD1002256F8043BEA
:100EA000072BC8BF103B02F10102C8BF46F8043C43
:100EB000202AF3D10123AB4007EE903A9FED6C9BC3
:100EC000B8EEE78ADFED708A00F17E0500273EABC1
:100ED000019303EBC716A9464FF0000839F8023F0B
:100EE000C3F3051307EE903AF8EEE77AB3EE0F7A04
:100EF000F4EEC77AF1EE10FAC8BF77EEE87A06ABE7
:100F0000C6ED007A1EAA53F8273052F8282004991B
:100F100096ED007A03FA0BF38A405344134407EE2C
:100F2000903AF8EEE77A47EE087A08F1010817EEF2
:100F3000900AFFF749FACDE902010598FFF722FA76
:100F4000B0EE490AF0EE690A41EC110B07F08EFC95
:100F5000DDE9020153EC102BFFF7B8FBFFF76EFD44
:100F600004F5805393ED957AD3ED947A77EE877AF2
:100F700094ED067A06EE900A67EE877AB6EE007A6E
:100F800047EEC76A16EE900AFFF71EFA02460B46B6
:100F900039A1D1E90001FFF799FBFFF74FFDB8F147
:100FA000200F46F8040B99D10137182F05F14005A1
:100FB0008DD19DED3E8A3FAA0123F2EC017AF4EE39
:100FC000487AF1EE10FA03F10103C8BFB0EE678A68
:100FD000B3F5407FF1D12AA7D7E90067002518EEC5
:100FE000100AFFF7F1F932463B4605F10108FFF719
:100FF000B5FCC8BB9FED1E8BDFF89090EDB204F1FD
:10100000480A04F5C96B4FF00008019B53F8040B24
:101010000193FFF7D9F9064628460F46FFF7B2F9C4
:10102000B0EE480AF0EE680A41EC110B07F01EFC26
:10103000304653EC102B3946FFF71EFAFFF7FEFC43
:10104000FFF7C2F942464B46FFF760F8FFF7D6FCC0
:101050002AF8020FD345D8D184F84A560DF6FC4D34
:10106000BDEC048BBDE8F08F38EE088A4546B6E744
:1010700000000000000000408DEDB5A0F7C6B03EB6
:101080009A999999D9FFDF40000080420000E03F23
:101090002DE9F04F2DED048BADF61C4D0DF114082C
:1010A000B0F86C3088F802301A0AB0F86E3088F860
:1010B000002088F803301A0AB0F8703088F8012050
:1010C000C3F303120832039203F00F02012393408B
:1010D00007EE903A9FED769B06ADB8EEE78A8B4619
:1010E000AA464FF0000900F18006F0EE088A574644
:1010F0004C46C4F3401304F0010202EB430236F8FD
:101100001430C3F3420307EE903AF8EEE77A013465
:10111000F4EEE87AF1EE10FAC4BFB2EE007A77EEA0
:10112000C77AC7ED007A18F9023097ED007A07EE1A
:10113000903AF8EEE77A47EE087A17EE900AFFF752
:1011400043F9CDE900010398FFF71CF9B0EE490A15
:10115000F0EE690A41EC110B07F088FBDDE90001B4
:1011600053EC102BFFF7B2FAFFF768FC09F12003EC
:10117000A34247F8040BBCD1B4F5407F0AF1800AC2
:1011800001D0A146B3E72868FFF71EF941EC100B28
:1011900008F01AFD51EC100BFFF750FC08EE100A96
:1011A0000DF11C08012458F8040BFFF70DF941EC70
:1011B000190BB0EE490AF0EE690A08F005FD18EEC9
:1011C000100A57EC106BFFF7FFF802460B4630464B
:1011D0003946FFF7E1FB58B1B0EE490AF0EE690A73
:1011E00008F0F2FC51EC100BFFF728FC08EE100A97
:1011F0000134B4F5407FD6D12FA7D7E9006700248A
:1012000018EE100AFFF7E0F832463B4604F10108F9
:10121000FFF7A4FB00283FD19FED258BDFF8A090BE
:10122000E4B20BF64B4A0BF64B764FF0000855F83C
:10123000040BFFF7C9F8CDE900012046FFF7A2F83B
:10124000B0EE480AF0EE680A41EC110B07F00EFB15
:10125000DDE9000153EC102BFFF70EF9FFF7EEFB71
:1012600007EE900AF5EEC07AF1EE10FA18D5FFF706
:10127000ABF842464B46FEF747FFFFF797FB40B2FD
:101280000AF8010F5645D2D18BF84C4F0DF61C4D84
:10129000BDEC048BBDE8F08F38EE088A4446AFE71A
:1012A000FFF792F842464B46FEF730FFE5E700BFF6
:1012B00000000000000000403333333333B34F40AD
:1012C0000000E03F000000002DE9F04F2DED048B01
:1012D000B0F86830ADF6144D1A0BB3F5004F03ADFE
:1012E00028BF103A52B21E052A70C3F3032248BF2A
:1012F000103A0C46AA701906C3F3031248BF103AFD
:101300006A709FED6D8B03F00F021B07B0F8703011
:1013100048BF103A04AEEA70C3F3032BB1464FF056
:101320000008CA46002707EB0803C3F3401203F086
:10133000010303EB42030137E85607EE900AF8EE8B
:10134000E77A17EE900AFFF73FF8CDE9000158461B
:10135000FFF718F8B0EE480AF0EE680A41EC110BFE
:1013600007F084FADDE9000153EC102BFFF7AEF92A
:10137000FFF764FB202F4AF8040BD4D108F12008B2
:10138000B8F5407F09F18009CBD13068FFF71CF830
:1013900041EC100B08F018FC51EC100BFFF74EFB62
:1013A00008EE100A05AF012557F8040BFFF70CF8FB
:1013B00041EC190BB0EE490AF0EE690A08F004FCA2
:1013C00018EE100A59EC108BFEF7FEFF02460B4692
:1013D00040464946FFF7E0FA58B1B0EE490AF0EE50
:1013E000690A08F0F1FB51EC100BFFF727FB08EE40
:1013F000100A0135B5F5407FD6D10FF2C409D9E9FD
:101400000089002518EE100AFEF7DEFF42464B4623
:101410006F1CFFF7A3FA002843D19FED278B04F53B
:10142000925ADFF8A490EDB204F64C770AF10C0A58
:101430004FF0000856F8040BFEF7C6FFCDE9000197
:101440002846FEF79FFFB0EE480AF0EE680A41EC2E
:10145000110B07F00BFADDE9000153EC102BFFF73D
:101460000BF8FFF7EBFA07EE900AF5EEC07AF1EE13
:1014700010FA1AD5FEF7A8FF42464B46FEF744FE87
:10148000FFF794FA40B207F8010FBA45D2D104F53C
:10149000805484F84D520DF6144DBDEC048BBDE81C
:1014A000F08F38EE088A3D46ACE7FEF78DFF4246E6
:1014B0004B46FEF72BFEE3E7000000000000004073
:1014C0003333333333B34F400000E03F00000000BC
:1014D0002DE9F04F2DED068BB0F8663090F96720BE
:1014E0009FEDE7AA63F0FF035B015201A3F50053F0
:1014F0000A804B80B0F86430B0F862509A0A07EE68
:10150000902AF8EEE77AF3EE0F9AF4EEE97AF1EE2C
:1015100010FAC4BF9FEDE07A77EEC77A9FEDD97AD3
:10152000C3F3090327EE879A07EE903AF8EEE77ABD
:101530000446F4EECA7AF1EE10FAC8BF9FEDD27AF3
:10154000008CC8BF77EEC77ABBB0F4EE008A00F417
:101550007040894627EEA88AFEF724FF9FEDC41B42
:101560009FEDC50B06460F4607F080F989ED019AFD
:1015700053EC102B89ED028AA9F80C5030463946FD
:10158000FFF7A4F8C14B0022FEF7C0FDFFF756FAA3
:10159000C9F81000B4F86030A9F8143094F9783024
:1015A00007EE903AFAEEED7AB7EE008AC9ED067AC8
:1015B000B4F87030C3F3013389F8243094F97930EA
:1015C00007EE903AFAEEE97A4FF6D873C9ED0A7A47
:1015D000B4F87E20C9F84030B4F87E30C2F301324E
:1015E000C3F30313A9F8443002EB8202B4F87E106F
:1015F000520013FB02F3C1F303219BB2A9F844305C
:1016000001FB0233A9F846304FF4C873A9F84830FB
:10161000B4F87E2002F00F0208320123934007EE57
:10162000903A94F97A3007EE103AF8EEE77AB8EE8D
:10163000C77AC7EE276AC9ED0B6A94F97B3007EECB
:10164000103AB8EEC77AC7EE276AC9ED0C6A94F96A
:101650007C3007EE103AB8EEC77AC7EE276AC9EDBC
:101660000D6A94F97D3007EE103AB8EEC77A884BD0
:10167000C9F83C30C7EE276AC9ED0E6AB4F8742089
:10168000B4F840A0C2F30905900548BFA5F58065F0
:101690004FEA922348BFADB2B2F5004F24BF403BA2
:1016A0009BB20FFA85F81D44B4F87230C3F30903F6
:1016B00007EE903AF8EEE77A4FEA1A3AF4EECA7A71
:1016C000F1EE10FAC4BF9FED707A77EEC77A0AF197
:1016D0001B0A17EE900AFEF777FE064650460F46A5
:1016E000FEF750FE9FED640B41EC110B07F0BEF8C6
:1016F000304653EC102B3946FEF7E8FFFFF79EF912
:10170000B4F872309B0A07EE903AF8EEE77A09EEE9
:10171000100AF4EEE97AF1EE10FAC8BF9FED5E7A96
:1017200094F97600C8BF77EEC77A9FED5A7A07EE34
:10173000878A2DB207EE900AF8EEE77A28EE098A3A
:1017400017EE900AFEF740FE0646B4F87000C0F3AC
:10175000031008300F46FEF715FE9FED470B41ECD6
:10176000110B07F083F8304653EC102B3946FEF787
:10177000ADFFFFF763F9C9F8200094F9770007EE91
:10178000900AF8EEE77A17EE900AFEF71DFE06467D
:10179000B4F87000C0F303200F46FEF7F3FD9FED91
:1017A000360B41EC110B07F061F8304653EC102B6F
:1017B0003946FEF78BFFFFF741F909F58053C9F869
:1017C0001C004946A3F85882A3F85A5283ED949A14
:1017D00083ED958A2046FFF70BFB218C2046C1F351
:1017E0000323009302AD30F8223F019301F00F086C
:1017F000C1F3031A04F12E062B4630F8022F02F033
:101800000F071F60C2F303175F60B042C2F30327E4
:101810004FEA12329F60DA6003F11003EDD12846DF
:10182000002250F8043B072BC8BF103B02F1010215
:10183000C8BF40F8043C182AF3D130461AAB04F173
:101840003E0630F8022F02F00F071F60C2F30317A5
:101850005F60B042C2F303274FEA12329F60DA6042
:1018600003F11003EDD11AA800221BE0AFF30080B2
:101870000000000000002C400000000000000040BC
:101880000080FF43000080390000804400002040B9
:1018900017B751B90000003C000080420000803DB5
:1018A0000000004250F8043B072BC8BF103B02F178
:1018B0000102C8BF40F8043C202AF3D104F1BE0065
:1018C00009F24A664FF0000C009A55F8043B934029
:1018D000019A13449BB21946A0F140070DF1680E1E
:1018E000324637F802BF4FEA9B23BBF5004F28BFB3
:1018F000403B53805EF8043B32F902BF03FA0AF31F
:101900000B440BFA08FB5B44B8421380E9D10CF19D
:10191000200CBCF5407F00F1400006F14006D3D119
:1019200020464946FFF7B4FB49462046FFF7CCFC6A
:10193000B4F86A30A28A03F03F0107EE901AF8EE7D
:10194000E77AC3F38411F4EEE97AF1EE10FAC4BF3A
:101950001FED2F7A77EEC77A1FED307A67EE876A30
:1019600007EE901AF8EEE77AB2EE0E6AF4EEC67A57
:10197000F1EE10FAC4BF1FED367A77EEC77ADB0AB4
:10198000B6EE007A27EE877A07EE903AF8EEE77A1D
:101990006FEA1212F4EEC67AF1EE10FAC4BF1FED30
:1019A000406A77EEC67A09F5805302F0800267EE4E
:1019B000A87A89F8252000254FF6FF72C3ED976AB3
:1019C00083ED987AC3ED997AA3F86822A3F872227E
:1019D000A3F86A22A3F87422A3F86C22A3F8762253
:1019E000A3F86E22A3F87822A3F87022A3F87A2233
:1019F0007E342E462B4634F8021F5A1C71B906F667
:101A00003411013629F8113093B2B3F5407FB6B2E4
:101A10001BD0052EEFD16FF0020011E0C90741BFC6
:101A200005F6381109EB410101354B8093B248BFEF
:101A3000ADB2B3F5407F08D0052DDCD16FF00300C7
:101A40003BB0BDEC068BBDE8F08F052EE3D0052D35
:101A5000F4D07319042B4BDC09F593570024083795
:101A6000A3B29E4215D809F5935700241237A3B2AA
:101A70009D4220D809F5935409F59359083409F18A
:101A8000100904EB460609EB4505A64233D04F4644
:101A90002AE004F1010AD046464501DC5446DFE75E
:101AA00037F8181037F8140007F017F90028C7D1D5
:101AB00008F10108F0E704F1010AD046454501DCD0
:101AC0005446D4E737F8181037F8140007F005F932
:101AD0000028B5D108F10108F0E737F8021F208887
:101AE00007F0FBF80028ABD1BD42F6D10234CCE7B9
:101AF0006FF00400A4E70020A2E700BF0000000090
:101B00002DE9F0412DED028B0546B0F8808691F865
:101B100024009FED278B0C46FEF734FCB0EE480AFC
:101B2000F0EE680A41EC110B06F0A0FEC8F3812824
:101B3000404657EC106BFEF725FCB0EE480AF0EE7D
:101B4000680A41EC110B06F091FEB5F9541653ECFE
:101B5000102B08EE101A30463946FEF7B7FDFEF797
:101B60006DFFB4F9023007EE903A07EE100AB4F9AF
:101B70000030B8EEC88AF8EEE77A58EE077A07EE3A
:101B8000103AB8EEC77AC7EE877A17EE900AFEF7DA
:101B90001BFC09A3D3E90023FEF7B8FAFEF74EFFBA
:101BA000BDEC028B00EE100ABDE8F081AFF30080BF
:101BB00000000000000000406666666666660A4037
:101BC0002DE9F84306460C46FFF79AFFB6F9403672
:101BD000D4ED046A07EE103AB6F9003607EE903AF3
:101BE000B8EEC77AF8EEE77A47EE267A10EE105A8A
:101BF000C7EE277A17EE900AFEF7E6FB9FED241B4F
:101C00009FED250B06460F4606F030FE304653EC9E
:101C1000102B3946FEF730FCFEF710FFFEF7D4FB21
:101C2000064660680F46FEF7CFFB80462846894689
:101C3000FEF7CAFB1BA3D3E90023FEF765FA0246B1
:101C40000B4640464946FEF717FC154B0022FEF7AF
:101C50005DFA02460B4630463946FEF737FD06462A
:101C6000A0890F46FEF79EFB02460B4630463946DA
:101C7000FEF74AFAFEF7E2FED4ED027A07EE100A0A
:101C800087EE270AF3EE097A30EE270ABDE8F883DB
:101C90000000000000003240000000000000004092
:101CA0000000F03F6666666666660A400000000057
:101CB0002DE9F04F2DED0A8B95B0B0F882360A93DE
:101CC0000C4610EE905A81469046B0EE40AAFFF7BF
:101CD00017FF2146484610EE106AFFF771FF10EE1D
:101CE000100AF0EE409AFEF76FFB0FF21C43D3E9A7
:101CF0000023FEF70BFAFEF7A1FE08EE900A284635
:101D0000FEF762FB0FF20043D3E90023FEF7FEF972
:101D1000FEF794FE08EE100A28EE088A68EEA88AFC
:101D200028EE088A94F84C0FB0EE487A08EEE87A6C
:101D300004F58055B7EE009AC7EE0A7AF0EE49CA6C
:101D400038EE678AFEF71EFB9FEDE70B41EC110BA7
:101D500006F08CFD51EC100BFEF770FE0AEE900AB7
:101D600095F84D02FEF70EFB9FEDDF0B41EC110BDA
:101D700006F07CFD51EC100BFEF760FE0BEE100A36
:101D800094F84A06FEF7FEFA9FEDD70B41EC110BD3
:101D900006F06CFD51EC100BFEF750FED4ED0B6A13
:101DA000DFEDD77AB4F94420B4F9463094ED0D6AEA
:101DB0000B90B0EE497A06EEA77A9B1A3046F0EE09
:101DC000496AC9EE077A8DED119ACDED107A07EECA
:101DD000902AB8EEE77AD4ED0C7A47EE276A07EE40
:101DE000903AF8EEE77AB0EE497A07EE867AB4F9DF
:101DF0001430CDED126A67EE267A07EE103AB9F983
:101E00001436CDED137A07EE903AB9F88036B8EE75
:101E1000C77AF8EEE77A5B09C7EE27BA069303F0B4
:101E200080030793B9F95036F3EE097A79EEE79A11
:101E3000D4ED087A0CEE103A49EEA7CAFEF7C4FAC0
:101E4000ABA3D3E90023FEF75FF9CDE90401E06914
:101E5000FEF7BAFADDE90423FEF70EFB0022A94BD8
:101E6000FEF754F9B9F9103607EE903AF8EEE77A32
:101E7000824667EEAB7A8B4617EE900AFEF7A4FA1D
:101E8000B5F9583207EE903AF8EEE77A064667EE73
:101E9000AC7A0F4617EE900AFEF796FA52465B466A
:101EA000FEF7EAFA02460B4630463946FEF72CF9B1
:101EB000FEF7C4FDB8EECCCA94F82530079A0E9010
:101EC0002CEE2BCA9342B5F95A321CEE100A08EEDA
:101ED000903A40F0D781FEF777FAF8EEE88A0646A6
:101EE0000F4668EEAC7A002517EE900AFEF76CFA02
:101EF00052465B46FEF7C0FA0B460246394630466C
:101F0000FEF702F9FEF79AFD04F14A03029304F684
:101F10004C430F90CDF80C800193069BB9F88226B4
:101F20001B06AA46C5F3401846BF0AF0010388EA1B
:101F300003034346934205F1010540F0908139F9CE
:101F40001A3007EE903AF8EEE77A67EEAB7A17EEC2
:101F5000900AFEF739FA019B93F9003007EE903AA8
:101F6000F8EEE77A029BC7EEAA6AB3F90236CDE92A
:101F70000801B0EE497A06EEA97A07EE903AF8EE3B
:101F8000E77A67EE277A17EE900AFEF71DFA019BB3
:101F900093F9013307EE903AF8EEE77A0646C7EE7A
:101FA0008B7A0F4617EE900AFEF70EFADDE904234E
:101FB000FEF762FA534B0022FEF7A8F802460B46E2
:101FC00030463946FEF758FA02460B46DDE908016D
:101FD000FEF79AF8FEF732FD94F82530079A07EEDF
:101FE000900A9342B0EE677A31D04FEA480808F180
:101FF000FF3306EE903A04F580531AF1030293ED95
:10200000996A0AF10203F8EEE66A48BF0AF106028D
:102010009B10BAF1000FA3EBA20346EE867A03EB06
:10202000A503B8BF0AF1030AA3EBAA03C8F101088C
:1020300013FB08F35BB2B0EE677A07EE903A04F553
:102040008053F8EEE77AD3ED986A07EEE67A0A9BBA
:102050000B98D4ED066A14AA02EB830353ED067ABB
:1020600006EEE77AF0EE498A87EE0ACAFEF7ACF987
:1020700021A3D3E90023FEF7FFF9029B0646188847
:102080000F46FEF78FF902460B4630463946FEF7FB
:102090001DFBFEF7D3FC94ED0A7A49EE878A07EE22
:1020A000900A68EEA78AB0EE4C7A08EE287A68EEBD
:1020B000A87A67EEA87A67EE877A17EE900AFEF79D
:1020C00083F941EC100B06F081FC06F07FFC206BDD
:1020D0008DED080BFEF778F982461CEE100A8B4650
:1020E000FEF772F914E000BF00000000000000409D
:1020F0006666666666660A408DEDB5A0F7C6B03EB8
:10210000000020420000F03F66666666661271407D
:1021100065A3D3E90023CDE90C0150465946FEF7EB
:10212000ABF902460B4600206149FDF7EDFF06467C
:1021300018EE900A0F46FEF747F902460B46304666
:102140003946FEF799F952465B4606460F46DDE9E9
:102150000801FEF791F9FEF771FCFEF735F902462A
:102160000B4630463946FDF7D1FF02460B46DDE906
:102170000C01FEF7ABFA064618EE100A0F46FEF702
:1021800023F902460B4630463946FDF7BFFF41ECC6
:10219000100B06F01BFC06F019FC43A3D3E9002347
:1021A00051EC100BFDF7B0FFFEF748FCB4F94230DC
:1021B00007EE103A07EE900AB8EEC77AB4EEE77A67
:1021C000F1EE10FA69DCB4F9443007EE103AB8EEDB
:1021D000C77AB4EEE77AF1EE10FA60DCB4F9463073
:1021E00007EE103AB8EEC77AB4EEE77AF1EE10FADD
:1021F000CCBF0223032303F1200234F9122007EE9F
:10220000102AB8EEC77A04EB8302D2ED0B6A77EEA0
:10221000C77A14AA02EB8303B0EE497A07EEA67AD6
:1022200053ED047A68EEA78A67EE287A8CEE277A57
:1022300077EE087A17EE900AFEF7C6F841EC100B1D
:1022400006F0C4FB06F0C2FB17A3D3E9002351EC50
:10225000100BFDF759FFFEF7F1FB039B1860039B82
:1022600004330393029B02330293019BB5F5407F35
:1022700003F1010301937FF450AE15B0BDEC0A8B5E
:10228000BDE8F08FFEF7A0F8F8EEE88AD5ED977A72
:10229000064678EEA78A0F4623E60023ABE7012324
:1022A000A9E700BFAFF300806666666666127140FC
:1022B0000000F03F000000002DE9F04F9FB0824683
:1022C000039116461C460025307810B9284600F0C8
:1022D00085BD731C2528069306D00399D047002896
:1022E000C0F27C8501351BE21822002110A807F0FE
:1022F0008CFC7378252B00F0BA800023711C984663
:102300009E469C4618460F4611F8012B2B2A00F0DA
:10231000DD8000F2D480202A00F0DB80232A00F048
:10232000DB802BB19DF8483043F040038DF84830F6
:10233000B8F1000F05D09DF8483043F020038DF828
:102340004830BEF1000F05D09DF8483043F010032F
:102350008DF84830BCF1000F05D09DF8483043F0AF
:1023600008038DF8483028B19DF8483043F0040345
:102370008DF848309DF8483003F04401442903D1DA
:102380006FF386138DF848309DF848300E9743F070
:1023900080032A2A8DF8483040F0A3809DF8493008
:1023A00043F001038DF849307B1C1A782E2A9DF8E2
:1023B00049200CBF0121002161F341028DF8492021
:1023C0000CD15A1C0E925A782A2A40F09A809DF815
:1023D000492042F004028DF8492002331A786C2A11
:1023E00000F0BB8000F29D80682A00F0A3806A2A7A
:1023F00000F0BC804C2A00F0C18013F8012B06933A
:10240000782A8DF84B2000F201816D2A00F2C380FA
:10241000692A00F2FB80572A00F2DA80412A04D0B0
:10242000A2F14503022B00F2F1809DF84A3002F040
:10243000DF020421A2F1410761F302037A429DF811
:1024400049108DF84A307A4162F3C7110A068DF8B7
:102450004910CBB200F1198103F07802182A40F03C
:1024600003816FF3C6038DF849300023F2E0B21CFC
:1024700006928DF84B309DF84930D90740F107811D
:1024800054F8042B0492002A08DA9DF8482042F000
:1024900004028DF84820049A524204925A0740F1EF
:1024A000FE8054F8047B002F80F2FD809DF84930B7
:1024B0006FF341038DF849304FF0FF37F3E02D2AD9
:1024C0000DD0302A7FF42DAF01231CE74FF0010C13
:1024D00019E74FF0010E16E74FF0010813E701204E
:1024E00011E70EA801F078FF0E9BBB423FF45DAFF1
:1024F0009DF848201390C00F60F341028DF84820EA
:1025000053E70EA801F068FF9DF848301490C3F31C
:10251000400242EAD07262F341038DF848300E9BCC
:102520005CE7742A26D07A2A7FF467AF9DF84920A9
:1025300006210CE05A78682A9DF8492006D101212D
:1025400061F3C6028DF84920023356E7022161F398
:10255000C6028DF8492001334FE75A786C2A9DF85E
:10256000492001D10421EBE70321F0E79DF8492040
:102570000521ECE79DF849200721E8E7BDF8482050
:1025800022F4F04222F0020242F4804242F00202BF
:10259000ADF84820DFE76E3AD3B201229A4040F20C
:1025A00082431A429DF8493037D112F0240F5FD18F
:1025B000D1072BD59DF84A2003F07803A3F1400002
:1025C000032161F3020243428DF84A20434141E076
:1025D000A2F15801C9B2012000FA01F111F4624FD1
:1025E0007FF423AF40F6010319429DF849301AD118
:1025F00011F4043F0AD09DF84A2060F3020203F070
:102600007803402B8DF84A207FF42FAF9DF8483097
:1026100043F001038DF8483027E79DF84A20022156
:1026200061F30202EBE79DF84A10022003F0780301
:1026300060F30201402B8DF84A1002BF9DF848104C
:1026400041F001018DF84810632A7FF40EAF003B82
:1026500018BF01239DF84820C2F340010B4363F3E8
:1026600041028DF8482006E713F0380FCED1FCE682
:102670009DF84A20032113F0780F61F302028DF8D0
:102680004A2014BF01230023E4E70123E2E79DF978
:102690004820002AB4BF139A4FF0FF32FDE69F078F
:1026A0007FF50AAF149F0023CDE913339DF84A301C
:1026B00003F00702042A9DF8492007D1900705D4AA
:1026C0009DF949100029ACBF06270D2703F0070329
:1026D000012BC2F3C30233D1D31E042B04D8DFE88D
:1026E00003F02146462121002368012A4FEAE371C5
:1026F000CDE910311CD19DF94030D917CDE9103109
:1027000004349DF848300793990750D0069B0399ED
:102710003246504606F03EFD0028C0F25F83054475
:10272000069ED1E554F8043BD917CDE91031E8E70E
:10273000022AE5D119B243F3C033CDE91013DFE724
:10274000022B24D1D31E042B04D8DFE803F0181089
:1027500010181800012A54F8043B4FF0000114D05F
:10276000022ACDE91031CCD19BB21093C9E70734CE
:1027700024F00704F4E80201CDE91001C1E754F8A0
:10278000043B109300231193BBE7DBB2CDE7042B8E
:1027900008D1073424F00704D4E900010834CDE956
:1027A0001001AEE7032BACD154F8043BDDE79DF8F4
:1027B0004BB0BBF1780FB3D8BBF1570F49D8BBF181
:1027C000250F00F09180BBF1240FA9D9BBF1410F77
:1027D00003D0ABF14502022AA2D8DDE91012002A8B
:1027E000C0F23681079B1E0700F13581C3F3001943
:1027F0004FEA4919C2F30A50C2F31302002840F00D
:102800002D8151EA020614BF01260026D20242EAB7
:102810005152C902BBF1460F40EA010E42EAE07C88
:1028200008BF4FF0660B5EEA0C0CCDE90C1200F00D
:102830009C81002E40F049810D9A42F00042A0F2A6
:10284000FE380D920020DDE90C1206464FF0050C13
:1028500055E1ABF1580120293FF662AF01A050F8D5
:1028600021F000BFEF2900002127000021270000F0
:102870002127000021270000212700002127000038
:102880002127000021270000DB270000212700006E
:102890007329000087290000DB270000DB270000E8
:1028A000DB270000212700008729000021270000E6
:1028B000212700002127000021270000292A0000ED
:1028C000EF290000F5290000212700002127000042
:1028D000EF28000021270000EF2900002127000039
:1028E00021270000EF29000003995846F6E4002F45
:1028F000109E3ADB3946304607F08FF93718002E24
:102900003FF40EAF4FF000099DF84A3013F010026B
:10291000059200F05882023013F04003DDF84C803D
:10292000089318BF149BCDF81C80404418BFC018F2
:10293000049B002B40F362829DF848201B1A50072D
:102940000493C2F3800B00F15982510640F1498291
:10295000B9F1000F07D003994846D0470028C0F2CC
:102960003D820135D94630223CE23046FEF736FA48
:10297000C4E7109B8DF85C304FF000090DF15D0746
:1029800017AE0120C0E7079B1A0758BFC3F3001911
:10299000DDE9102354BF4FEA49194FF02B09002BF2
:1029A00006DA524263EB4303CDE910234FF02D09C1
:1029B0000DF175030093DDE9100117AB12AA01F0C8
:1029C00021FD0646002F0CDB9DF848200DF1750314
:1029D0009B1B6FF386129F428DF8482001D9FB1A8A
:1029E0001393002E3FF49CAE0DF175075BE04FF0A2
:1029F0000009DDE71098002800F0E0810DF1750373
:102A0000009312AA17AB002101F0FCFCBDF84A307C
:102A100003F0EF0343F4F04343F010030646ADF830
:102A20004A304FF00009CDE7109B072A3FF678AEF9
:102A3000DFE802F00C04060C08080C0C1D706FE6B1
:102A40001D806DE6EA17C3E9005269E61D6067E67E
:102A50004FF02D09CEE64FF02B09CBE640F2FF7682
:102A6000B0422FD10BF101039F48DBB20A43C35C94
:102A700003F003031ED1012B0BBF492369234E2111
:102A80006E210CBF462266228DF85C309DF84830DE
:102A90008DF85D106FF386138DF85E208DF8483049
:102AA0000DF15F0717AEB81BB9F1000F3FF42CAF63
:102AB000013029E7012B15BF6E234E2361214121EF
:102AC0001A46E1E70026A1E6013849185241002ADA
:102AD000FADACDE90C12AFE6490841EAC2715208B0
:102AE000B2F1333F404608F10108F5D20CFB02FE7B
:102AF000A1FB0C1200F102087244013E012018F102
:102B0000020FE9DB08B1CDE90C12B8F1000FDDE9E5
:102B10000C212DDCC8F10400A0F1200C08F11C08E8
:102B2000C24001FA08F821FA0CFCC1400BF0DF00AA
:102B300042EA0802472842EA0C023AD1F01C01DBC3
:102B4000B7422BDAABF10203002F5FFA83FB7DDD86
:102B50009DF84800830607F1FF3777D43B1E18BF66
:102B60000123059307F101082DE04FF0000869E605
:102B7000023241F100010CA8CDE90C2106F0DBFA8C
:102B8000DDE90C2108F1FF3801369218494100298E
:102B900008F1FF38F9DACDE90C21B6E79DF84830A5
:102BA0009806A7EB06074FD43B1E18BF01230593D9
:102BB00004E00023BBF1660F0593D3D117EB0608A1
:102BC0004FF0660B44D4B8F1100FA8BF4FF01008B7
:102BD0009FED437B8DED0E7B10200B90DDE90E0306
:102BE000B8F1000F37D1121841EB0301B1F1805F4A
:102BF00041D2CDE90C21079BBBF1660F03F0200207
:102C000040F0BB80002E41DC30218DF85C10002AA2
:102C10006CD1002F40F3B5812E228DF85D2086B156
:102C20007242BA42A8BF3A469DF84A101392002A4F
:102C3000A7EB0207D4BF0022012262F345118DF8F1
:102C40004A100DF15E0839E00023B0E7002388E761
:102C50004FF00008BCE7400840EAC3705B08CDE9CC
:102C60000E030EA8CDE9082108F1FF3806F063FA3B
:102C7000DDE90821B2E7520842EAC1720CA849080E
:102C8000CDE90C21013606F056FAB4E70DF15C08E7
:102C90000B99002909DD0BA90CA8079206F063FA2D
:102CA000013E08F8010B079AF2D113969AB9002F4A
:102CB00040F365812E2108F8011B0026002F1EDD40
:102CC0000B9A002A1BDD0BA90CA806F04CFA013F59
:102CD00008F8010BF2E72E2208F8012BEDE700BF00
:102CE00000000000000000087FAA00002E228DF8DE
:102CF0005D20002EA5D0002F92DC0DF15E08059B13
:102D0000002B4ED1149747460BF0DF02452A23D102
:102D1000002EBABF76422D232B23632EC8BF642119
:102D20007B70D1BFBA1CB6FBF1F3FA1C03F1300083
:102D3000C8BF01FB13664FF00A01C8BFB87087F81F
:102D400000B0B6FBF1F3174603F1300001FB13634B
:102D5000303307F8020B5370139B002B2CDC149BB1
:102D6000002BD4BF002301239DF84A2063F3861271
:102D700000238DF84A203B7094E60BA90CA807921B
:102D800006F0F1F9079A8DF85C00302818BF06F1BB
:102D9000FF3612B9002F40F3F4802E228DF85D200B
:102DA0004FE7474608F1FF3817F8012C302AF8D0D2
:102DB0002E2A08BF4746A7E70123D5E7724F814671
:102DC0007E1F0520A0E51A0748BF0130A4E5104684
:102DD00009920399D0470028099A05DA1FB0BDE887
:102DE000F08F2022DDF810B0594600290BF1FF3B8F
:102DF000EDDC049BCDF810B02B445D1AB9F1000F47
:102E000005D003994846D0470028E7DB0135089BE9
:102E1000002B79D09DF94930002B29DBDFF86C912C
:102E20003346187819F8002052079B4603F1010336
:102E30003FD49DF84A30AE1B98065E4407D4424604
:102E4000002A08F1FF383BDC079B33449E1A9BF8AD
:102E500000002E280AD10399D0470028BEDBB8F124
:102E6000000F06F1010631DC0BF1010B5D4638E085
:102E7000B14699F800007028C84609F1010913D13C
:102E8000AE1B149D46443544AB1B002B34DC039928
:102E90003B464246504606F07DF900289EDB304412
:102EA000049E0546064465E00399D0470028E0DA11
:102EB00094E705930399D0470028059BB1DA8DE785
:102EC00003993020D0470028B9DA87E703993020EA
:102ED000D04708F1FF38C0E70399D0470028FFF634
:102EE0007DAF287819F800305907A84605F101058B
:102EF000F2D4A6EB0B06C4E703993020D047002894
:102F0000FFF66CAF0136BFE79DF84A30DA0601D410
:102F10001B0706D503993020D0470028FFF65EAF87
:102F20000135059B3BB103999DF84B00D047002824
:102F3000FFF654AF0135A84406E003993020D0478E
:102F40000028FFF64BAF0135A8EB0503002BF4DC9E
:102F500003993B463246504606F01CF90028FFF61E
:102F60003DAF28449CE703992020D0470028FFF676
:102F700035AF0135731B002BF5DCFFF7D1BB1646CF
:102F8000BDE60DF15D08BAE638A3000080AA000096
:102F90002DE9F04F91B08DED001BDDE9003828F0F0
:102FA000004959EA030257EC106B00F0A580884AEB
:102FB00027F0004494423D46B246029419D813D1FA
:102FC000F6B9A1451CD821D1D3B9824B9C4240F21D
:102FD0009680B8F1000F80F2C6840020002141ECF9
:102FE000100B11B0BDE8F08F914502D80ED1002B27
:102FF0007BD004F1404404F5801454EA0A047BD0E9
:10300000754811B0BDE8F04F00F0EEBC002D08DAB5
:10301000724A91450BD9002B00F0A2804FF0020BB1
:1030200023E0002B00F08B804FF0000B1DE0694A7D
:10303000914506D8002BF7D1B8F1804F6BD09B4655
:1030400013E04FEA2952A2F2FF32142A38DDC2F10E
:10305000340223FA02F101FA02F29A42EAD101F0B3
:103060000101C1F1020B002B52D047EC106B06F0AE
:10307000ABFD51EC100BBAF1000F7ED1584B25F08F
:1030800040429A4201D0002C77D1B8F1000F05DA06
:1030900002460B4600205249FDF718FB002D9EDA30
:1030A00004F1404404F5801454EA0B045DD1024657
:1030B0000B4610461946FDF727F802460B463BE043
:1030C000002BB1D1C2F1140249FA02F101FA02F265
:1030D0004A45434A26D1914526D0B8F1804F1AD0AF
:1030E00001F00101C1F1020BBFE704F1404303F518
:1030F000801333437FF469AF394900206FE7B8F19B
:10310000000FBFF66AAFDDE9000303F1004166E797
:10311000B8F1804FA9D132463B4610461946FDF71B
:10312000ABF95CE7914587D1B8F1000F80F21F84BD
:103130002B4932463B460020FDF7C8FA4FE7284AA4
:103140009145F1D0B8F1804FE5D0264A90457FF403
:1031500076AF47EC106B11B0BDE8F04F05F06ABCDC
:10316000B8F1804F7FF45AAFD5E7BBF1010F7FF480
:1031700036AF01F10043194631E7EB0F013B0C93E9
:103180005BEA030302D132463B4692E7164B994570
:1031900040F2FE8003F1047399450E4B09D99C421D
:1031A0000CD8B8F1000FBFF618AF07A3D3E900237E
:1031B000B3E79C42F5D30A4B9C4217D9B8F1000FF4
:1031C000F3DC0AE7AFF300809C7500883CE4377EAF
:1031D0000000F07FFFFFEF3F48A30000FFFF3F43E9
:1031E0000000F03F0000E03F0000E041644B00229F
:1031F000FCF78AFF56A3D3E9002304460D46FDF7EA
:103200003BF955A3D3E9002306460F46204629463D
:10321000FDF732F95B4BCDE9020100222046294639
:10322000FDF72AF902460B464DA1D1E90001FCF752
:103230006BFF22462B46FDF71FF902460B46002086
:103240005149FCF761FF2246804689462B462046BD
:103250002946FDF711F902460B4640464946FDF75F
:103260000BF941A3D3E90023FDF706F902460B460B
:10327000DDE90201FCF748FF02460B46804689461D
:1032800030463946FCF742FF002432463B46204692
:103290000D46FCF739FF02460B4640464946FCF70F
:1032A00033FF0C9A0BF1FF33134306460F4600F031
:1032B0002B829FED2F7BDDE90023CDE90423002342
:1032C0000493DDE904ABDDE900015B4652468DED78
:1032D000027BFCF719FF22462B46FDF7CDF8DDE90E
:1032E00000238046894630463946FDF7C5F8024638
:1032F0000B4640464946FCF709FF5B4606460F462B
:10330000524620462946FDF7B7F80B46024680464E
:10331000894630463946FCF7F9FE1C4B9942044673
:103320000D468B4640F30E8201F13F4303F5E00367
:10333000034300F0EC8110A3D3E90023DDE902018F
:10334000FDF79AF80CA3D3E90023E8E6AFF3008079
:10335000000000604715F73F44DF5DF80BAE543EB8
:10336000555555555555D53FFE822B654715F73FA9
:10337000000000000000F03F9C7500883CE4377EB0
:103380000000F03F0000D03F0000E03FFFFF8F4013
:10339000D14B2B4000222BB9D04BFDF76DF86FF0CD
:1033A00034020291029B1B15A3F2FF3313440993CD
:1033B000029BC3F3130ACA4B4AF07F559A4545F462
:1033C000401508DDC74B9A4540F39B81099B0133AB
:1033D0000993A5F580154FF0000A4FEACA030D9333
:1033E000C14B03EBCA0393ED007B294653EC172B2B
:1033F0008DED067BCDE90A01FCF786FEDDE90A23A7
:1034000006460F46DDE90601FCF780FE02460B4644
:103410000020B649FDF75AF9CDE90E0102460B46E8
:1034200030463946FDF728F8CDE90401DDE90434DA
:10343000CDE9023400230293DDE902896D1045F0E5
:10344000005505F50025002205EB8A434046494614
:1034500014461D46FDF710F802460B463046394625
:10346000FCF752FEDDE9062306460F4620462946B4
:10347000FCF74AFE02460B46DDE90A01FCF744FE72
:1034800042464B46FCF7F8FF02460B4630463946AB
:10349000FCF73AFEDDE90E23FCF7EEFFDDE904233D
:1034A000CDE9060110461946FCF7E6FF78A3D3E9FB
:1034B000002304460D46FCF7DFFF77A3D3E9002382
:1034C000FCF724FE22462B46FCF7D6FF74A3D3E973
:1034D0000023FCF71BFE22462B46FCF7CDFF72A310
:1034E000D3E90023FCF712FE22462B46FCF7C4FF6B
:1034F0006FA3D3E90023FCF709FE22462B46FCF715
:10350000BBFF6DA3D3E90023FCF700FE224606466D
:103510000F462B4620462946FCF7AEFF02460B46D7
:1035200030463946FCF7A8FF424604460D464B4656
:10353000DDE90401FCF7EAFDDDE90623FCF79CFF69
:1035400022462B46FCF7E2FD4246CDE90A014B46F6
:1035500040464946FCF790FF654B002206460F4661
:10356000FCF7D4FDDDE90A23FCF7D0FD00240D466D
:1035700022460B4640464946FCF77EFF5C4B8046A0
:103580008946002220462946FCF7BEFD32463B46CE
:10359000FCF7BAFD02460B46DDE90A01FCF7B4FD73
:1035A000DDE90423FCF768FF224606460F462B465A
:1035B000DDE90601FCF760FF02460B46304639465E
:1035C000FCF7A4FD06460F4602460B464046494618
:1035D000FCF79CFD00243AA3D3E9002320460D46C6
:1035E000FCF74AFF4246CDE904014B4620462946F6
:1035F000FCF78AFD02460B4630463946FCF784FD4F
:1036000031A3D3E90023FCF737FF31A3D3E900232B
:1036100006460F4620462946FCF72EFF02460B467B
:1036200030463946FCF772FD0D9A324B1344D3E90C
:103630000023FCF76BFDCDE906010998FCF7B2FE0B
:103640000D9A2D4B1344D3E900890646DDE9062384
:103650000F46DDE90401FCF759FD42464B46FCF7F5
:1036600055FD32463B46FCF751FD002432463B46B1
:1036700020460D46FCF748FD42464B46FCF744FD0C
:10368000DDE90423FCF740FD02460B4636E000BFAF
:10369000EF4E454A287ECA3F65DBC9934A86CD3F37
:1036A00001411DA96074D13F4D268F515555D53F1D
:1036B000FFAB6FDBB66DDB3F033333333333E33FB5
:1036C000000000E009C7EE3FFD033ADC09C7EE3F0A
:1036D000F5015B14E02F3EBE0000F07F0000404388
:1036E0008E98030079B60B00389F00000000F03F71
:1036F00000000840189F0000289F0000DDE9060137
:10370000CDE54FF0010A68E69FED9B7BD3E5B3A3BF
:10371000D3E9002330463946FCF7F8FC4246CDE9B0
:1037200000014B4620462946FCF7EEFC02460B46BC
:10373000DDE90001FDF730F900287FF4FCAD40F22F
:10374000094323E0A04C21F00043A34219D99F4B29
:103750000B4403430AD08AA3D3E90023DDE9020125
:10376000FCF78AFE86A3D3E90023D8E442464B4601
:10377000FCF7CAFC32463B46FDF704F90028DED0D0
:10378000E9E7934A934240F2E7801B15A3F2FE3328
:103790004FF4801A4AFA03FADA44CAF30A518D4800
:1037A000A1F2FF31084100EA0A03CAF3130AC1F18A
:1037B00014014AF4801A4AFA01FABBF1000F40469C
:1037C00049464FF00002B8BFCAF1000AFCF79CFC62
:1037D0008046894632463B4640464946FCF796FCC1
:1037E000002469A3D3E9002320460D46FCF744FEDC
:1037F0004246CDE900014B4620462946FCF784FCB1
:1038000002460B4630463946FCF77EFC60A3D3E9FE
:103810000023FCF731FE60A3D3E9002380468946EC
:1038200020462946FCF728FE02460B4640464946FC
:10383000FCF76CFC04460D4602460B46DDE9000130
:10384000FCF764FCDDE9002380468946FCF75CFC5C
:1038500002460B4620462946FCF756FC42460646E1
:103860000F464B4640464946FCF706FE4CA3D3E9BB
:10387000002304460D46FCF7FFFD4BA3D3E90023CC
:10388000FCF742FC22462B46FCF7F6FD48A3D3E9A1
:103890000023FCF73BFC22462B46FCF7EDFD46A33C
:1038A000D3E90023FCF730FC22462B46FCF7E4FD6D
:1038B00043A3D3E90023FCF729FC22462B46FCF75F
:1038C000DBFD02460B4640464946FCF71DFC04461C
:1038D0000D4602460B4640464946FCF7CDFD002208
:1038E000CDE900014FF0804320462946FCF70CFC4F
:1038F00002460B46DDE90001FCF7E8FE32460446CD
:103900000D463B4640464946FCF7B6FD32463B462F
:10391000FCF7FCFB02460B4620462946FCF7F4FB6D
:1039200042464B46FCF7F0FB0B4602462A49002074
:10393000FCF7EAFB41EC100B10EE903A03EB0A5354
:10394000B3F5801F0BDA504600F056F851EC100B1F
:10395000DDE90223FFF7E3BBDDF810A03AE751EC05
:10396000100B1946F4E7DDE90001FFF738BB3046DC
:103970003946FFF734BB00BF000000000000F0BF75
:1039800059F3F8C21F6EA50100000000432EE63F68
:10399000EF39FAFE422EE63F396CA80C615C20BE7E
:1039A000D0A4BE726937663EF16BD2C541BDBB3E45
:1039B0002CDE25AF6A56113F93BDBE166CC1663F23
:1039C0003E5555555555C53FFFCB904000346F3F90
:1039D0000000E03F0000F0FF0000F03FFE822B659A
:1039E0004715973C000000009FED010B704700BF9A
:1039F000000000000000F87F70B555EC104BC5F3D7
:103A00000A5206462B4692B925F00043234339D08B
:103A1000334B204629460022FCF72EFD314B9E42B7
:103A200004460D460FDA26A3D3E900231FE040F237
:103A3000FF718A420BD1224620462946FCF766FBDD
:103A400004460D461EE0C1F30A520B46363A324494
:103A500040F2FE718A420DDD002D1BA1D1E900016B
:103A600002DA1BA1D1E9000117A3D3E90023FCF777
:103A700003FDE5E7002A08DD23F0FF4323F4E0031C
:103A800043EA025545EC104B70BD12F1350F08DAD0
:103A9000002D0BA1D1E90001C5DA0FA1D1E9000188
:103AA000C1E723F0FF43363223F4E00343EA025533
:103AB00020460D4B29460022D9E700BFAFF3008016
:103AC00059F3F8C21F6EA5019C7500883CE4377E4F
:103AD0009C7500883CE437FE59F3F8C21F6EA5813F
:103AE00000005043B03CFFFF0000903C2DE9F04344
:103AF000ADF2B46D4FF0000881460D4614464146C4
:103B000040F27C620DA81F46CDF8308006F07DF8AB
:103B100005AB0CAE6DBA0693022264000723ADF824
:103B2000145007928DF8208009960A948DF82C3055
:103B30001348836806A99D684B46A84770B932466A
:103B40003C44A74202F1020215D012F8021C12F8FE
:103B5000013C03EB012327F8023BF2E7094B0A493A
:103B6000CDF80080CDE9018340464346012205F0AF
:103B7000A5F84FF0FF300DF2B46DBDE8F08300BF43
:103B8000D49C0000ECA00000F49E00002DE9FF4151
:103B90004BBAADF8003053BAADF8023004230293AB
:103BA000022306460F461546CDF804D08DF80C309A
:103BB0000E48836801229C6801A93346A047044649
:103BC00088B9DFF82C800122434639463046FFF79A
:103BD0008DFFB8F80030AB4218BF6FF001042046EB
:103BE00004B0BDE8F0814FF0FF34F8E7D49C00004A
:103BF0002023002000B5ADF2946D00214FF4004069
:103C000004F054FC04A9332005F080F80346002892
:103C100042D0334B029300230390CDE90033314966
:103C20000122184605F054F92F4904A8FDF750FC6D
:103C30000346002839D02D4B029300230390CDE991
:103C4000003328490122184605F042F9284B332059
:103C5000197805F022F9034680B3264B029300231E
:103C60000390CDE900331F490122184605F030F9D1
:103C7000332005F052F8034648B31F4B029300234C
:103C80000390CDE9003317490122184605F020F9C9
:103C90000DF2946D5DF804FB184A12490090CDE9CD
:103CA0000102032205F014F9BEE7154A0D49009000
:103CB000CDE90102032205F00BF9C7E7114A0949D2
:103CC0000090CDE90102032205F002F9D0E70E4A87
:103CD00004490090CDE90102032205F0F9F8D7E785
:103CE00011A10000F49E0000900E00205FA10000D2
:103CF000BC000020BEA1000016A2000051A10000DF
:103D0000A5A1000001A2000058A20000F0B5ADF28C
:103D1000AC6D2F4B039300242E4B2F49029320466A
:103D20002346CDE90044032205F0D2F82B4B2A4963
:103D30000094CDE9014320462346032205F0C8F84C
:103D4000FFF758FF264F244D264C09A9332004F0D5
:103D5000FCFF002809DA0023CDE90270CDE9003329
:103D600001222946184605F0B3F8214609A8FDF7B7
:103D7000C7FE1D4B1D4E83ED000A214609A8FDF725
:103D80001FFF1B4B1B4A83ED000A1B4BD3ED000AA0
:103D90001A4B70EE600A214693ED000A09A8FDF760
:103DA00087FF3068FCF710FBCDE9060156F8040CDC
:103DB000FCF70AFB124B02930023CDE90401CDE985
:103DC000003303222946184605F082F8BDE700BFFC
:103DD0006FA2000083A20000F49E0000A9A20000D0
:103DE000BDA20000900E00208C020020D008002010
:103DF0008802002090020020040000200000002023
:103E000000A300002DE9F04F91B08407009302F069
:103E100004030293C2F3C20303F10103DDF86880D7
:103E2000039205460E46059340F0BE81041D30B155
:103E3000072909D86FF01B0011B0BDE8F08F01F021
:103E40000706341DC6F10806009B4FF00009591EF5
:103E50004FF0040A4FF0FF330193CDF810904F4616
:103E6000CB4653460DB1009820600598002800F31A
:103E7000EB809A48009A824203D399488242C0F06C
:103E8000E380039AA4EB050E92074FEA9E0000F12F
:103E900006810F2F00F2B480002D00F0088107F199
:103EA00040020DEB020C019A0CF8200C0CF8102CBF
:103EB000049801300490EAE07A2860D84B280ED8A4
:103EC00047285CD829282FD8252855D057D820280E
:103ED0007DD02338D0F1000B4BEB000B77E0A0F145
:103EE0004C0CBCF12E0F4AD8DFE80CF0714949495F
:103EF00049494949494949494C494949494949492F
:103F0000495A494C4C5A5A5A714C6E497149184C8D
:103F100018494983804C49494C49800000204FF0A2
:103F2000000B4FF0040A39E0A0F12A0C5FFA8CFC78
:103F3000012202FA0CFC1CEA0E0F48D11CF0625060
:103F40002ED11CEA020B42D0013C5444CAF1000CB1
:103F500004EA0C04002D61D0A3EB050CA4446645D3
:103F6000FFF468AF002868D1042B47D158F8043B10
:103F70002360043404232AE0019A013A01924FF0AD
:103F8000000B24E011F8010C6C2834D111F8023C2C
:103F900000206C2B8346C4D14FF0080A5346D3E768
:103FA00008F1070828F007080734F8E802AB24F006
:103FB000070435B106982044B0423FF63BAFC4E950
:103FC00000AB08344FF0000B4FF0080A534611F8CD
:103FD000010F002878D0BBF1000F7FF46DAF2528CA
:103FE000F5D1019B013301934FF0010B4FF0040A0F
:103FF000ECE7584693E700208346A5E7082B02D05C
:104000006FF0150018E708F1070828F00708B8EC6A
:10401000027B84ED007B08340823D8E768B9042BC1
:1040200002D108F10408A4E7082BE9D108F1070838
:1040300028F0070808F10808EDE705980138059011
:1040400058F8040B00900DE7039A900720D5A4EBD5
:10405000050E4FEA9E004FF0010CBEF5007FCFD257
:104060000F2FCDD8F5B107F140020DEB020EC0B213
:10407000019A0EF8200C0EF8102CBCF1000F3FF442
:1040800017AF60F07F000EF8200C09F1010901372D
:10409000C5F10802043406924FF6DA7E97E74FF036
:1040A000000CDAE7BCF1000F01D00136EFE7029A0D
:1040B0000236002AEBD10098CDE90631FCF78EFEDE
:1040C000DDE906310644E2E7631BB3F5806F97D262
:1040D00045B9A6F10804E018AEE600BF3C9C00001C
:1040E00080AB0000029A28609B082B709DF810306E
:1040F000C2B1EB7085F80290B9F1000F05D008A8A5
:104100000022C5F1010C97420ED1C5F101030DF15A
:1041100020084FF0000A01930DF1300B574512D1E2
:10412000601B89E66B70E5E710F8013B190608D5BE
:1041300004EB0C0E764503F07F03FFF47BAE04F82E
:10414000013B0132DFE7B9F1000F03D098F90020FD
:10415000002A17DB029BD3B11AF80B2004F8012BBD
:104160000022019B981820448642FFF463AE98F821
:10417000000004F8010B00990392204605F037FD7A
:10418000039A14440AF1010A08F10108C6E798F8F5
:10419000002055F822300093029B45F82230009809
:1041A000FCF71CFE421CDCE76FF00D0044E600BF8C
:1041B000014B1860704700BF080000202DE9F04750
:1041C000058B04462807904611D4022905F00705FF
:1041D00040F0CD80204604F0D4FE78B10138218B28
:1041E000042811D8DFE800F0C3106D85950001297F
:1041F0000CBF45F0100545F02005258388F3118894
:10420000BFF36F8FBDE8F08701F0070AAA4500F001
:10421000A6800027B9463E46A368002B00F0BD806B
:1042200041F00801218388F31188BFF36F8FA168E3
:10423000002900F0BB800D68002900F0B780D1F89C
:104240000480334652462046C047002D76D02B6866
:1042500029461D46F0E701F007035A1F012A1BD823
:10426000002221F00701062B276889B2C4E9002249
:1042700009D13B4603E0628B013262831B68002B4D
:10428000F9D141F002012183204604F07AFE002892
:104290007BD041F0200177E0042B0AD121F0070107
:1042A00089B22183204604F06CFE10B141F0200158
:1042B0002183218B01F0070AAA4550D00027B94677
:1042C000AAE7236921F0070141F00601062DD3F882
:1042D000009021832DD1B9F1000F40D041F00801A9
:1042E000218388F31188BFF36F8F3A492046C8476E
:1042F00029E021F00701236941F0040189B2042D6E
:10430000D3F804902183E6D000273E464FF0040AFC
:1043100082E721F00701236941F0050189B2052DEB
:10432000D3F808902183D6D000273E464FF0050AE7
:1043300072E700273E464FF0060A6DE72B4687E7F7
:10434000B9F1000FD1D14FF02003EFF3118883F3BF
:104350001288BFF36F8F238B23F008032383258BF1
:10436000EA062ED525F01003238305F007056669BC
:10437000218B002EBFF66FAF00232768C4E90033FE
:1043800021F0070141F001012183218B01F0070A8F
:10439000AA454FF000097FF43FAF002F9BD041F0BA
:1043A0000801218388F31188BFF36F8F002FC7D0D6
:1043B0003D68394633465246204604F00EFE2F46ED
:1043C000F4E7AB067FF51AAF25F02003238305F051
:1043D0000705FFE607900000F0B5094E01680246A8
:1043E0000A2700200B4601311C78355D6D0701D48A
:1043F0001360F0BD07FB0043A3F13000F2E700BFFC
:1044000080AA00002DE9F84F15469A46D378224A33
:1044100012F803B06F2B80460F460BF0030B29D028
:1044200024D8582B0CBF10260A26DDF828903246D7
:10443000002340463946FCF751FB092AD4B21ED866
:104440003034B045E4B277F1000709F8014D01D3EB
:10445000D14511D82B789B0605D5082E15D1AB7800
:1044600043F00803AB704846BDE8F88F03F0F7034C
:10447000702BD7E70826D8E780460F46D7E7BBF171
:10448000010F0CBF37345734DBE7102EEBD1AB787C
:1044900043F01003E6E700BF80AA000002F00EBA66
:1044A0002DE9F84F81462F480F4604F08FFE06464F
:1044B00070B92D4CDFF8B4A00546A0464FF0010BB3
:1044C000544507D3B9F1000F02D04FF0010AE5B906
:1044D000BDE8F88F237B73B12368DB680BB12046FE
:1044E000984723681B6943B963680422196820460A
:1044F00000F0C4F801361034E2E72046984700285F
:10450000F2D00BFA06F31D43F4E7A94695FAA5F499
:10451000B4FA84F40AFA04F3260108EB04146FEAEF
:10452000030B25EA0305237B63B158F806301B69AA
:1045300093B94644042273682046196809EA0B09B6
:1045400000F09CF8002DE1D127B14FF4A4700021B8
:1045500003F0ACFF4D46BAE7204698470028F1D15A
:10456000E7E700BF14210020FC9E00000C9F000024
:10457000014B53F820007047589F000008B50346D0
:1045800008462BB1044A136000F080FA002008BDF1
:104590006FF01500FBE700BF0C000020044A05483F
:1045A00000231370044A4FF400411360FFF7E6BF85
:1045B00022230020C99100000C21002070B50B4D72
:1045C000297841B90120FFF76BFF094C094EB4422D
:1045D00002D301232B7070BD63685B791BB1236824
:1045E00020469B6898471034F1E700BF2223002043
:1045F000FC9E00000C9F000010B50446084804F023
:10460000E5FD5CB1BFF35B8F064B53E8001F01393A
:1046100043E80012002AF8D1BFF35B8F10BD00BF42
:104620000C2100201021002070B50A4B0A4C1B6899
:104630000A4E05469847A860B44200D370BD63682F
:104640005B7923B1236829461B68204698471034BC
:10465000F2E700BF0C000020FC9E00000C9F000051
:10466000044A054B9B1AB1EBD30F34BF52F831000B
:1046700000207047849E0000FC9E0000084BC31A77
:1046800010B41B1144680133237143689A71436865
:104690001960436801225A715DF8044B04F0B8BDFB
:1046A000FC9E00002DE9F04F85B002AFD7E90EA9BE
:1046B0003D6B04460E4693469846BAF1000F35D03E
:1046C000C7F80490CDF8009010217A6B5346002073
:1046D000FFF798FB0146164A04F007040BF0070B9E
:1046E000E40002EA412244EA8B141443114A02EA2C
:1046F000C54217350D4425F00705ADEB050D1443F4
:1047000002ADBAF1000F07D0CDF800907A6B534696
:1047100005F11000FFF776FB434622463146284656
:1047200004F079FD0C37BD46BDE8F08F5146D2E765
:1047300000FE07000000F87F0EB403B503AB01468E
:1047400053F8042B0448019304F0A8FD02B05DF86F
:1047500004EB03B0704700BF4B920000CA0605D4BB
:104760008B064CBF02490349FFF7E6BF704700BF05
:1047700047A3000046A300002DE9F04F8BB09A46F6
:10478000DDE915739DF850B00693179B189E0892AB
:1047900004460D460593BBF1000F00F0858006F03E
:1047A0000103099306F00803079304F032FD06F0B5
:1047B00002090246002847D084492046FFF7BCFF83
:1047C0008046B9F1000F08D016F0440F3ED1804961
:1047D0002A462046FFF7B0FF8044099B53B17D4B2A
:1047E0007D4953F82B207D4B2046002A08BF1A46EE
:1047F000FFF7A2FF079B002B54D0794B794953F860
:104800002B202046FFF798FF0546089B2BB17649E1
:104810001A462046FFF790FF0544BAF1000F05D075
:10482000724952462046FFF787FF05444544002F52
:1048300048D1059B002B4ED1F30700F1C0803146D3
:104840002046FFF78BFFB4E08046BAE7684B186854
:104850000028C1D0674B4FF47A791B68B5FBF3F59C
:104860004FF46161B5FBF0F300FB135509FB05F54F
:104870004FF03C0CB3FBF1F201FB1231B5FBF0FE43
:10488000B1FBFCF300FB1E550CFB131109FB05F5F6
:104890000091B5FBF0F55849CDE901E52046FFF759
:1048A0004BFF99E7079DB0E7BAF1010F06D1002F42
:1048B00065D1059B002B7CD000250CE0002FF8D0A3
:1048C0004E485DE04E484F493B46224604F00FFB00
:1048D000059B002B69D0DFF84081DFF84091059FF0
:1048E0003146102F204628BF1027FFF737FF4FF023
:1048F000000A554546DC069B49461A782046FFF7D4
:104900001BFF4FF0010A1AF0070F03D14146204662
:10491000FFF712FF57453CD9069B494613F80A207A
:104920002046FFF709FF0AF1010ABAF1100FEAD198
:10493000354920464FF0000AFFF7FEFE5246069B1F
:104940009A5C324B995C11F0970F08BF2E223049C8
:104950002046FFF7F1FE0AF1010ABAF1100F1DD04F
:104960001AF0070F03D141462046FFF7E5FE5745F1
:104970005246E4D841462046FFF7DEFEEBE72048EA
:104980005D46A0E741462046FFF7D6FE0AF1010A40
:10499000AFE720492046FFF7CFFEC4E7069B3B4424
:1049A0000693059BDB1B059399D1BBF1000F7FF4A8
:1049B00043AF20460BB0BDE8F04F04F076BC074A89
:1049C00005492046FFF7B8FE39E700BF4EA30000B7
:1049D00052A30000689F0000CBA8000049A300007C
:1049E0007C9F000077A300007DA3000081A300004E
:1049F0001C210020182100205BA30000679200000A
:104A00004B9200009D92000090A3000080AA00003D
:104A100092A300008CA300008EA3000086A30000D8
:104A20002DE9F0410F884B688E6886B005460C462C
:104A30009046C7F382175BB1134A9B1A43F3CF0129
:104A400000291FDB2078C0F3C200FFF709FE0346F0
:104A50002146608851F8102B0097C2F34922002AA2
:104A600001EB0204C0F3CB0008BF0021CDE903082D
:104A7000CDE90114002231462846FFF77DFE06B03D
:104A8000BDE8F0810023E3E7849E0000074A00218F
:104A90000123904206D8064A01B901231360054B51
:104AA0001860704740085B000121F2E740420F00A8
:104AB000182100201C210020014B01221A70704790
:104AC00023230020014B002019607047342100206F
:104AD000024B034801221A7004F0E7BB2423002094
:104AE000AC9F000010B5064B18680C46FFF740FD60
:104AF00021460346BDE8104002480F22184700BF78
:104B000034210020AC9F0000F8B5194D07460E4631
:104B1000042432463946002002F070FEC8B1012359
:104B20002B70144B1B782BB93046F8BD5CB92C7038
:104B30004FF0FF34002002F0D5FE0028F4D02B788F
:104B4000002BF3D1F0E7013C41F2883005F037F853
:104B5000F0E72B7813B1013C04D12C702B78002B9B
:104B6000D7D1E1E741F2883005F029F8F6E700BF38
:104B700023230020242300202DE9F84305464FF08D
:104B80002003EFF3118683F31288BFF36F8F0E4B70
:104B90000E4F1C68DFF838804FF00C092CB986F3F3
:104BA0001188BFF36F8FBDE8F883D4E90123002D8E
:104BB00018BF13462BB198F8142009FB02F2B85C19
:104BC00098472468EAE700BF5021002044210020D4
:104BD000E022002070B5194B1C7DBFF35B8F04F001
:104BE0001F0301229A40164B610903EB8103D04356
:104BF00053E8001F01EA000543E80056002EF7D1F4
:104C0000BFF35B8F0A4213D00E4B0F4D8BB10C23B9
:104C10006343EA18E85C517804F0A6FB0020FFF734
:104C2000ABFF0C235C432A1900232B51C2E901334B
:104C300070BD83F31188BFF36F8FEFE7E022002090
:104C40005821002069930000442100202DE9F04103
:104C5000354B07461D7D4FF02003EFF3118883F39A
:104C60001288BFF36F8F0C24304B314E6C431A19EE
:104C7000195D00294CD007CA06EB040C8CE807002C
:104C800000221A5588F31188BFF36F8F0C236B43F2
:104C9000F218F05C002839D07B1C10D0D2F808C084
:104CA000244C254A4FF400400021ECFB0041002336
:104CB0002046FBF713FF0121381A04F060FF03F0D0
:104CC00037FB0120FFF758FFBFF35B8F1B4B6A09CF
:104CD00003EB820305F01F0101228A4053E8000F15
:104CE000104343E800010029F8D1BFF35B8F144B58
:104CF0003BB10C2303FB05F03318305C597804F00A
:104D000027FBFFF767FF03F027FB0120BDE8F081D9
:104D10000146284600F016F80028B3D007C83444EE
:104D200084E80700AEE700BFE02200203821002021
:104D3000442100203F420F0040420F005821002034
:104D4000519300002DE9F04F85B00E4603A900F005
:104D500043F81E4B039DD3F800A0DFF87880431E74
:104D60001BB203EB4303044605EB83054FF40047F6
:104D70004FF0000B24B9A146484605B0BDE8F08FBE
:104D80006868134AC4465946E0FB07C100236046E1
:104D9000FBF7A4FE0190A8680D4AC4465946E0FB03
:104DA00007C100236046FBF799FEBAF1FF3FA94611
:104DB00001D0824505D9731CDED0019B1844B04256
:104DC000DAD9013CA4B20C3DD4E700BF10000020AA
:104DD00040420F003F420F0008B9024B0B60002019
:104DE000704700BFBC9F0000014910220A60704755
:104DF00010ED00E072B6404080F31188BFF36F8F72
:104E0000BFF34F8F30BF62B6BFF36F8F704700BFE5
:104E100072B6494081F31188BFF34F8F20BF80F3F2
:104E2000118862B6704700BF2DE9F04780468CB00C
:104E30000D46002977D08B6805934B6804930B6867
:104E4000039300243B4B3C49029301222346204616
:104E5000CDE9004404F036FA6B6905932B6904939D
:104E6000EB680393354B34490094CDE901430122AB
:104E70002346204604F026FAEB690393304B2E4973
:104E80000094CDE9014301222346204604F01AFA9A
:104E9000DFF8B890DFF8A0A02F462646D7ED0B7AB2
:104EA000FCEEE77AE31C0993CDED0A7AD7ED0A7A96
:104EB000FCEEE77AA31C0793CDED087AD7ED097ACB
:104EC000FCEEE77A631C0593CDED067AD7ED087A00
:104ED000FCEEE77A0023CDE90294CDE90066CDED42
:104EE000047A012251461846043404F0EBF9102CE0
:104EF00007F11007D2D12B6E0393124B0E49009687
:104F0000CDE9016300231846012204F0DBF9AB6907
:104F100003930D4B08490096CDE90163002301225C
:104F2000184604F0CFF9294640460CB0BDE8F047DA
:104F300002F0F8BCC8A30000DC9E0000F7A300004C
:104F400026A4000078A4000087A4000035A4000077
:104F500040B2002807DB044A4109012300F01F008A
:104F6000834042F82130704700E100E0054B4209E0
:104F700000F01F0053F82220012303FA00F0104034
:104F8000704700BF00E100E040B20028A8BF00F178
:104F9000604001F10101B8BF064B4FEA4111ACBFBF
:104FA00000F5614000F00F00C9B2B4BF195480F899
:104FB0000013704714ED00E030BFFFF7FDBF00BFE6
:104FC000144A08B5144B22F07F029A60BFF34F8F4A
:104FD000BFF36F8FD3F8882022F47002C3F88820C3
:104FE000D3F8882042F4A002C3F888204FF0404252
:104FF000C3F83422BFF34F8FBFF36F8F0023E1EE6E
:10500000103A02F02FFD03F0D1FA00F015FC02F087
:105010006DFD00BF0000000000ED00E0094A0A49F4
:10502000936809689967094958674B6843F080534A
:105030004B60002383F31188BFF36F8F9368986FE1
:10504000704700BFE0220020BCA0000000ED00E09F
:1050500021498A6882F8BDE04FF030001044EFF338
:10506000098C80E8F01F1EF0100F03D102F17C00C4
:1050700080EC108A202080F31288BFF36F8F174FC7
:105080004FF000660A6A8A603E6092F9BDE0506F98
:105090000023536780F311881EF0100F03D0002304
:1050A000E1EE103A03E002F17C0090EC108AEFF39D
:1050B000148323F0040383F31488BFF36F8F04B5C4
:1050C000104600F055FCBDE8044002F1300090E8C5
:1050D000F01F8CF309887047E022002004ED00E007
:1050E0001EF0040F0CBFEFF30880EFF30980816915
:1050F00011F8021C0229FFD001B504F0F3F801BD3C
:10510000017B890705D5416E40314166816E40398A
:10511000816642F8203C009B42F81C3C0F49019BF1
:1051200042F8183C029B42F8143C21F001014FF078
:10513000807342F8043C42F8081C00234367037B59
:1051400013F0020FA2F120024FF6085308BF4FF4EC
:105150007D430265C0F8BC30704700BF6F8F000010
:10516000037B13F0020F194B03D190F8BD20D20638
:1051700017D45A6B42F080425A63D0F8BC301907FA
:1051800009D443F00803C0F8BC30436E4033436693
:10519000836E403B8366037B43F0020303738020EE
:1051A00070475A6B22F080425A63D0F8BC301A071D
:1051B00001D44020704723F00803C0F8BC30436E90
:1051C000403B4366836E40338366F2E700EF00E0C6
:1051D0000C4A03469068A0B1D0F8BC20406E12F093
:1051E000080F0CBF4022802213F1160F04D0821A40
:1051F0009A4205D8834203D2814228BF00207047DB
:1052000000207047E022002008B514460D46002219
:10521000E1EE102AEFF3148222F0040282F31488E4
:10522000BFF36F8FBFF36F8F084A906000F0A0FB51
:10523000204685F30988002163B681F31188BFF306
:105240006F8F0022002303F092FE00BFE0220020B7
:1052500001B572B60B4AD06900281EBF0021D1618A
:1052600004F0BAFB62B6EFF30580A0F110004FEA3C
:10527000C0000549014409C99847BDE801400349F8
:1052800008470000E0220020EC9C00009152000042
:10529000044B9968186A884203D003494FF0805242
:1052A0000A607047E022002004ED00E0F0B585B010
:1052B00000243B4B0293CDE90044234607460E46AB
:1052C00001223849204604F01CF8374B9B6ADB0466
:1052D00009D5364B33490094CDE9014301222346D9
:1052E000204604F00EF8304B9B6A1D0509D5304B63
:1052F00002930023CDE900332A490122184604F025
:1053000000F8294DAB6A9C051ED50024294B029359
:10531000012223462046CDE90044224903F0F1FF53
:10532000AB6BAA6A10040FD50393234B1D4900945D
:10533000CDE9014301222346204603F0E2FF1FB1DD
:10534000AB6A23F40043AB62174B9B6A590509D53E
:105350001A4B02930023CDE900331249012218466B
:1053600003F0CFFF104A936A13F4807312D0144BEA
:1053700002930023CDE900330A490122184603F0C5
:10538000C0FF094A936A002043F47F439362307060
:1053900005B0F0BD926A9204F3D50A4A0292E9E799
:1053A000B5A40000DC9E000000ED00E0CBA40000EE
:1053B000DCA40000EFA4000008A500001DA500006B
:1053C00038A5000050A500001FB50024334B029300
:1053D000CDE90044234632490122204603F091FFE3
:1053E000304B9B6A9B0109D52F4B2D490094CDE989
:1053F000014301222346204603F083FF294B9B6A89
:10540000DC0109D5294B02930023CDE9003324495F
:105410000122184603F075FF224B9B6A180309D539
:10542000234B02930023CDE900331D490122184686
:1054300003F067FF1B4B9B6A590309D51D4B029371
:105440000023CDE9003316490122184603F059FF25
:10545000144B9B6A9A0309D5174B02930023CDE99D
:1054600000330F490122184603F04BFF0D4B9B6A96
:10547000DB0309D5114B02930023CDE90033084922
:105480000122184603F03DFF064A936A6FEA034380
:105490006FEA13430020936204B010BD7FA50000A3
:1054A000DC9E000000ED00E097A50000AAA500002A
:1054B000C4A50000E2A5000007A6000021A6000088
:1054C0002DE9F04385B00024494B0293CDE9004417
:1054D000234680468946204646491646012203F067
:1054E00010FF454B9B6AD80609D5444B41490094AF
:1054F000CDE9014301222346204603F002FF3E4B43
:105500009B6A190709D53E4B02930023CDE900336E
:1055100038490122184603F0F4FE374DAB6A9A076A
:1055200036D46FF01507344B9B6ADD0709D5354B30
:1055300002930023CDE900332E490122184603F0DF
:10554000E0FE2D4B9B6A9C0609D52F4B029300234E
:10555000CDE9003327490122184603F0D2FE264C3C
:10556000A36AD80636D4A36A990733D40020A36A65
:10557000214A9B0642BF636A23F400536362936A25
:1055800043F0FF0393620023337005B0BDE8F0835E
:1055900000241E4B0293CDE9004423461549012205
:1055A000204603F0AEFE6F6BAB6A1B06B9D5184BF5
:1055B00010490397CDE90143009423460122204678
:1055C00003F09FFEB9F1000FADD0AB6A23F080036A
:1055D000AB62A8E763681A05C8D541463846FFF7AD
:1055E000F7FD0028C2D080F309880220BFE700BF82
:1055F0004CA60000DC9E000000ED00E062A600006A
:10560000DCA40000C3A6000050A5000095A6000081
:10561000ADA600002DE9F041724B5F68A2B00546CF
:10562000C7F30804002383F31188BFF36F8F02F0E0
:105630007F40B0F17F4F0CD102F00C00082819D147
:10564000694A6A490093CDE901321846012203F004
:1056500058FE002635464FF00008E31E8DF81F80E7
:10566000092B00F2A580DFE803F00B999D95A3A319
:10567000A3A3A3A1120746BF0D461E460126EAE7D3
:105680005B4B5A49574FCDF80080CDE90183002389
:105690000122184603F035FE8DF81F80FC6A14F0D5
:1056A000020405D0534BCDF80080CDE9018306E01C
:1056B000FB6A002B0BDA504B0094CDE90143002329
:1056C0004A490122184603F01CFE00243AE0FB6A16
:1056D0005B00FAD5494B45490094CDE901430122CD
:1056E0002346204603F00DFE7B69AA6943F48073CC
:1056F0007B61BFF34F8FBFF36F8F7B6932F8022C52
:1057000023F480737B61BFF34F8FBFF36F8F4DF630
:1057100002739A4209D0BB6ADBB26BB30DF11F0270
:1057200001212846FFF7CCFE36E02B680393344B6B
:105730000094CDE90143204623462C49012203F081
:10574000E0FD2C689DF81F309BB96822294608A807
:1057500004F04DFA0F9B002E3ED0C3F3080222B98D
:105760006FEA53236FEA43230F9308A92046FFF7FC
:105770005BFB22B0BDE8F081BB6A13F47F4F05D01C
:105780000DF11F010120FFF791FD05E0BB6AB3F5A4
:10579000803F9AD3FFF718FE0446D3E70DF11F02AE
:1057A0000021BEE70DF11F010020ECE7154B7AE761
:1057B000154A164B0D4917F4F87F18BF1346103CD5
:1057C000CDE90334124B02930023CDE900330122CB
:1057D000184603F096FD78E723F4FF7323F00103E6
:1057E000C2E700BF00ED00E010A70000DC9E000053
:1057F0003BA7000052A7000073A7000081A700008C
:10580000A0A70000BCA70000F7A60000E2A60000C9
:10581000E0A70000024A536943F010035361704748
:1058200000ED00E0EFF30880EFF3098101B5724667
:10583000FFF7F0FE01BD00BF044800232021C2187D
:105840000133302B82F80013F9D1704700E100E0FA
:10585000002080F31488BFF36F8FFEF71FFE002037
:105860000D490860BFF34F8F0C4880F3088800F0A3
:105870002BF8202080F3118809484FF40461401868
:1058800080F30988EFF314800221084380F3148821
:10589000BFF36F8FFFF794FB94ED00E08051002081
:1058A000802700200749D1F890200023C2F3072267
:1058B0001846934200DB7047C1F89830C1F8A00049
:1058C0000133F6E700ED00E008B572B6002383F37C
:1058D0001388FFF7E7FF144B4FF0FF32C3F8802027
:1058E000C3F88420C3F88820C3F88C20C3F8902024
:1058F000C3F89420C3F89820C3F89C20C3F88021F3
:10590000C3F88421C3F88821C3F88C21C3F89021FF
:10591000C3F89421C3F89821C3F89C2162B6BFF361
:105920004F8FBFF36F8F08BD00E100E0084B9B680D
:1059300083420BD1EFF3058343B1064B5A6842F023
:1059400080525A605A6A22F400425A6202F0CEBD76
:10595000E022002000ED00E0024B034A0348012151
:1059600000F08CB80000022000000020BC9F000066
:1059700010B50446FFF7F4FB626E03460548D21AE1
:10598000C0E90023044B8360BDE81040012100F012
:105990007FB800BF5C21002000000B15F0B5284E39
:1059A00085B000258D4215DA4468002C45D0D3B16E
:1059B00004F1FF3C14EA0C0F0FD0224B0395029325
:1059C00000230122CDE900331F49184603F0A9FC4A
:1059D0006FF01502104605B0F0BD1F2CEDD9076819
:1059E0001CEA070FE9D1202C0768D0F808C05FFA3D
:1059F00082FE10D9B4F1004F0FD8013CB4FA84F400
:105A0000C4F11F046400BEF1070F4CEA040C06D970
:105A10000E4B0392D3E70824F5E73E24F3E727F083
:105A20001F04144344F01004C6F89820C6F89C40A4
:105A30004CF00104C6F8A040013201350C30B1E74A
:105A400000ED00E0F7A70000D49E00001AA80000B7
:105A5000044B0522C3F89420BFF34F8FBFF36F8F21
:105A6000704700BF00ED00E0BFF35F8F024B0022E4
:105A7000C3F89420704700BF00ED00E010B5034C60
:105A800001232278FFF78AFF207010BD2623002013
:105A900008B5094A00231278FFF780FF10F1160FAE
:105AA00003D0064B0022072800DD08BDC3F898008C
:105AB000C3F8A0200130F6E72623002000ED00E027
:105AC00014490868082810B521D8FFF7CDFF124CFB
:105AD00049680022904201F10C0105D10F4B18706A
